{
  "address": "0x3E00742B94607a5c7DDfd00c5c156a9c411D771A",
  "abi": [
    {
      "inputs": [
        {
          "internalType": "contract IAccountManagerToken",
          "name": "_accountManagerToken",
          "type": "address"
        },
        {
          "internalType": "address",
          "name": "_router",
          "type": "address"
        },
        {
          "internalType": "contract IVault",
          "name": "_vault",
          "type": "address"
        },
        {
          "internalType": "contract IPositionRouter",
          "name": "_positionRouter",
          "type": "address"
        },
        {
          "internalType": "address[4]",
          "name": "_arrLongIndexToken",
          "type": "address[4]"
        },
        {
          "internalType": "address[4]",
          "name": "_arrShortIndexToken",
          "type": "address[4]"
        },
        {
          "internalType": "bool[2]",
          "name": "_permissions",
          "type": "bool[2]"
        },
        {
          "internalType": "address",
          "name": "_manager",
          "type": "address"
        }
      ],
      "stateMutability": "nonpayable",
      "type": "constructor"
    },
    {
      "anonymous": false,
      "inputs": [
        {
          "indexed": true,
          "internalType": "address",
          "name": "previousOwner",
          "type": "address"
        },
        {
          "indexed": true,
          "internalType": "address",
          "name": "newOwner",
          "type": "address"
        }
      ],
      "name": "OwnershipTransferred",
      "type": "event"
    },
    {
      "inputs": [],
      "name": "accountManagerToken",
      "outputs": [
        {
          "internalType": "contract IAccountManagerToken",
          "name": "",
          "type": "address"
        }
      ],
      "stateMutability": "view",
      "type": "function"
    },
    {
      "inputs": [
        {
          "internalType": "uint256",
          "name": "",
          "type": "uint256"
        }
      ],
      "name": "arrLongIndexToken",
      "outputs": [
        {
          "internalType": "address",
          "name": "",
          "type": "address"
        }
      ],
      "stateMutability": "view",
      "type": "function"
    },
    {
      "inputs": [
        {
          "internalType": "uint256",
          "name": "",
          "type": "uint256"
        }
      ],
      "name": "arrShortIndexToken",
      "outputs": [
        {
          "internalType": "address",
          "name": "",
          "type": "address"
        }
      ],
      "stateMutability": "view",
      "type": "function"
    },
    {
      "inputs": [
        {
          "internalType": "address[]",
          "name": "_path",
          "type": "address[]"
        },
        {
          "internalType": "address",
          "name": "_indexToken",
          "type": "address"
        },
        {
          "internalType": "uint256",
          "name": "_collateralDelta",
          "type": "uint256"
        },
        {
          "internalType": "uint256",
          "name": "_sizeDelta",
          "type": "uint256"
        },
        {
          "internalType": "bool",
          "name": "_isLong",
          "type": "bool"
        },
        {
          "internalType": "uint256",
          "name": "_acceptablePrice",
          "type": "uint256"
        },
        {
          "internalType": "uint256",
          "name": "_minOut",
          "type": "uint256"
        },
        {
          "internalType": "uint256",
          "name": "_executionFee",
          "type": "uint256"
        },
        {
          "internalType": "bool",
          "name": "_withdrawETH",
          "type": "bool"
        }
      ],
      "name": "createDecreasePosition",
      "outputs": [],
      "stateMutability": "payable",
      "type": "function"
    },
    {
      "inputs": [],
      "name": "createDoppelgangerGMX",
      "outputs": [],
      "stateMutability": "nonpayable",
      "type": "function"
    },
    {
      "inputs": [
        {
          "internalType": "address[]",
          "name": "_path",
          "type": "address[]"
        },
        {
          "internalType": "address",
          "name": "_indexToken",
          "type": "address"
        },
        {
          "internalType": "uint256",
          "name": "_amountIn",
          "type": "uint256"
        },
        {
          "internalType": "uint256",
          "name": "_minOut",
          "type": "uint256"
        },
        {
          "internalType": "uint256",
          "name": "_sizeDelta",
          "type": "uint256"
        },
        {
          "internalType": "bool",
          "name": "_isLong",
          "type": "bool"
        },
        {
          "internalType": "uint256",
          "name": "_acceptablePrice",
          "type": "uint256"
        },
        {
          "internalType": "uint256",
          "name": "_executionFee",
          "type": "uint256"
        },
        {
          "internalType": "bytes32",
          "name": "_referralCode",
          "type": "bytes32"
        }
      ],
      "name": "createIncreasePosition",
      "outputs": [],
      "stateMutability": "payable",
      "type": "function"
    },
    {
      "inputs": [
        {
          "internalType": "address[]",
          "name": "_path",
          "type": "address[]"
        },
        {
          "internalType": "address",
          "name": "_indexToken",
          "type": "address"
        },
        {
          "internalType": "uint256",
          "name": "_amountIn",
          "type": "uint256"
        },
        {
          "internalType": "uint256",
          "name": "_minOut",
          "type": "uint256"
        },
        {
          "internalType": "uint256",
          "name": "_sizeDelta",
          "type": "uint256"
        },
        {
          "internalType": "bool",
          "name": "_isLong",
          "type": "bool"
        },
        {
          "internalType": "uint256",
          "name": "_acceptablePrice",
          "type": "uint256"
        },
        {
          "internalType": "uint256",
          "name": "_executionFee",
          "type": "uint256"
        },
        {
          "internalType": "bytes32",
          "name": "_referralCode",
          "type": "bytes32"
        }
      ],
      "name": "createIncreasePositionETH",
      "outputs": [],
      "stateMutability": "payable",
      "type": "function"
    },
    {
      "inputs": [
        {
          "internalType": "uint256",
          "name": "id",
          "type": "uint256"
        }
      ],
      "name": "currentPrice",
      "outputs": [
        {
          "internalType": "uint256",
          "name": "",
          "type": "uint256"
        }
      ],
      "stateMutability": "view",
      "type": "function"
    },
    {
      "inputs": [],
      "name": "ddl_gmx",
      "outputs": [
        {
          "internalType": "address",
          "name": "",
          "type": "address"
        }
      ],
      "stateMutability": "view",
      "type": "function"
    },
    {
      "inputs": [
        {
          "internalType": "address",
          "name": "",
          "type": "address"
        }
      ],
      "name": "doppelgangerMap",
      "outputs": [
        {
          "internalType": "address payable",
          "name": "",
          "type": "address"
        }
      ],
      "stateMutability": "view",
      "type": "function"
    },
    {
      "inputs": [
        {
          "internalType": "uint256",
          "name": "id",
          "type": "uint256"
        }
      ],
      "name": "getPosition",
      "outputs": [
        {
          "internalType": "uint256",
          "name": "size",
          "type": "uint256"
        },
        {
          "internalType": "uint256",
          "name": "collateral",
          "type": "uint256"
        },
        {
          "internalType": "uint256",
          "name": "averagePrice",
          "type": "uint256"
        },
        {
          "internalType": "uint256",
          "name": "entryFundingRate",
          "type": "uint256"
        },
        {
          "internalType": "uint256",
          "name": "reserveAmount",
          "type": "uint256"
        },
        {
          "internalType": "uint256",
          "name": "realisedPnl",
          "type": "uint256"
        },
        {
          "internalType": "bool",
          "name": "isProfit",
          "type": "bool"
        },
        {
          "internalType": "uint256",
          "name": "lastIncreasedTime",
          "type": "uint256"
        }
      ],
      "stateMutability": "view",
      "type": "function"
    },
    {
      "inputs": [
        {
          "internalType": "uint256",
          "name": "id",
          "type": "uint256"
        }
      ],
      "name": "getPositionDelta",
      "outputs": [
        {
          "internalType": "bool",
          "name": "isProfit",
          "type": "bool"
        },
        {
          "internalType": "uint256",
          "name": "profit",
          "type": "uint256"
        }
      ],
      "stateMutability": "view",
      "type": "function"
    },
    {
      "inputs": [
        {
          "internalType": "enum IAccountManager.Symbols",
          "name": "",
          "type": "uint8"
        }
      ],
      "name": "indexTokenBySymbol",
      "outputs": [
        {
          "internalType": "address",
          "name": "",
          "type": "address"
        }
      ],
      "stateMutability": "view",
      "type": "function"
    },
    {
      "inputs": [
        {
          "internalType": "uint256",
          "name": "id",
          "type": "uint256"
        }
      ],
      "name": "isLong",
      "outputs": [
        {
          "internalType": "bool",
          "name": "",
          "type": "bool"
        }
      ],
      "stateMutability": "view",
      "type": "function"
    },
    {
      "inputs": [
        {
          "internalType": "uint256",
          "name": "",
          "type": "uint256"
        }
      ],
      "name": "keyData",
      "outputs": [
        {
          "internalType": "enum IAccountManager.Symbols",
          "name": "symbol",
          "type": "uint8"
        },
        {
          "internalType": "address",
          "name": "doppelgangerContract",
          "type": "address"
        },
        {
          "internalType": "bool",
          "name": "isLong",
          "type": "bool"
        },
        {
          "internalType": "address",
          "name": "indexToken",
          "type": "address"
        },
        {
          "internalType": "address",
          "name": "user",
          "type": "address"
        }
      ],
      "stateMutability": "view",
      "type": "function"
    },
    {
      "inputs": [],
      "name": "manager",
      "outputs": [
        {
          "internalType": "address",
          "name": "",
          "type": "address"
        }
      ],
      "stateMutability": "view",
      "type": "function"
    },
    {
      "inputs": [],
      "name": "owner",
      "outputs": [
        {
          "internalType": "address",
          "name": "",
          "type": "address"
        }
      ],
      "stateMutability": "view",
      "type": "function"
    },
    {
      "inputs": [
        {
          "internalType": "enum IAccountManager.Symbols",
          "name": "",
          "type": "uint8"
        }
      ],
      "name": "permissions",
      "outputs": [
        {
          "internalType": "bool",
          "name": "",
          "type": "bool"
        }
      ],
      "stateMutability": "view",
      "type": "function"
    },
    {
      "inputs": [],
      "name": "positionRouter",
      "outputs": [
        {
          "internalType": "contract IPositionRouter",
          "name": "",
          "type": "address"
        }
      ],
      "stateMutability": "view",
      "type": "function"
    },
    {
      "inputs": [],
      "name": "renounceOwnership",
      "outputs": [],
      "stateMutability": "nonpayable",
      "type": "function"
    },
    {
      "inputs": [],
      "name": "router",
      "outputs": [
        {
          "internalType": "address",
          "name": "",
          "type": "address"
        }
      ],
      "stateMutability": "view",
      "type": "function"
    },
    {
      "inputs": [
        {
          "internalType": "address",
          "name": "value",
          "type": "address"
        }
      ],
      "name": "setDDL_GMX",
      "outputs": [],
      "stateMutability": "nonpayable",
      "type": "function"
    },
    {
      "inputs": [
        {
          "internalType": "address",
          "name": "value",
          "type": "address"
        }
      ],
      "name": "setManager",
      "outputs": [],
      "stateMutability": "nonpayable",
      "type": "function"
    },
    {
      "inputs": [
        {
          "internalType": "enum IAccountManager.Symbols",
          "name": "symbol",
          "type": "uint8"
        },
        {
          "internalType": "bool",
          "name": "value",
          "type": "bool"
        }
      ],
      "name": "setPermission",
      "outputs": [],
      "stateMutability": "nonpayable",
      "type": "function"
    },
    {
      "inputs": [
        {
          "internalType": "address",
          "name": "",
          "type": "address"
        },
        {
          "internalType": "bool",
          "name": "",
          "type": "bool"
        }
      ],
      "name": "symbolByIndexToken",
      "outputs": [
        {
          "internalType": "enum IAccountManager.Symbols",
          "name": "",
          "type": "uint8"
        }
      ],
      "stateMutability": "view",
      "type": "function"
    },
    {
      "inputs": [
        {
          "internalType": "address",
          "name": "newOwner",
          "type": "address"
        }
      ],
      "name": "transferOwnership",
      "outputs": [],
      "stateMutability": "nonpayable",
      "type": "function"
    },
    {
      "inputs": [],
      "name": "vault",
      "outputs": [
        {
          "internalType": "contract IVault",
          "name": "",
          "type": "address"
        }
      ],
      "stateMutability": "view",
      "type": "function"
    }
  ],
  "transactionHash": "0x208decdf0bd058e1db3312ab3b434eeafc6ed572983dc8d4d033184886accdf3",
  "args": [
    "0x1E80d34cA3A302670D423E6C3A5dD8c7b46250EB",
    "0xaBBc5F99639c9B6bCb58544ddf04EFA6802F4064",
    "0x489ee077994B6658eAfA855C308275EAd8097C4A",
    "0xb87a436B93fFE9D75c5cFA7bAcFff96430b09868",
    [
      "0x82aF49447D8a07e3bd95BD0d56f35241523fBab1",
      "0x2f2a2543B76A4166549F7aaB2e75Bef0aefC5B0f",
      "0xf97f4df75117a78c1A5a0DBb814Af92458539FB4",
      "0xFa7F8980b0f1E64A2062791cc3b0871572f1F7f0"
    ],
    [
      "0xFF970A61A04b1cA14834A43f5dE4533eBDDB5CC8",
      "0xFd086bC7CD5C481DCC9C85ebE478A1C0b69FCbb9",
      "0x17FC002b466eEc40DaE837Fc4bE5c67993ddBd6F",
      "0xDA10009cBd5D07dd0CeCc66161FC93D7c9000da1"
    ],
    [
      true,
      true
    ],
    "0x40243C8EfD23a09018E624b8DF8197A48deEAc82"
  ],
  "numDeployments": 1,
  "solcInputHash": "73e04658a56aaa777a8bbc06dcee20b5",
  "bytecode": "0x6101006040523480156200001257600080fd5b506040516200408f3803806200408f833981016040819052620000359162000339565b6200004033620001cf565b6001600160601b0319606089811b821660805288811b821660a05287811b821660c05286901b1660e0526200007960088560046200021f565b5062000089600c8460046200021f565b5083516001600160a01b0390811660009081526004602081815260408084206001808652908352818520805460ff199081169091559851861685529282528084208480528252832080548816831790558551600682527f54cdd369e4e8a8515e52ca72ec816c2101831ad1f18bf44102ed171459c9b4f880548916911515919091179055948501518183527f3e5fec24aa4dc4e5aee2e025e51e1392c72a2500577559fae9665c6d52bd6a3180549115159190971617909555855181805260059094527f05b8ccbb9d4d8fb16ea74ce3c29a41f1b461fbdaff4714a0d9a8eb05499746bc80549483166001600160a01b03199586161790559451939094527f1471eb6eb2c5e789fc3de43f8ce62938c7d1836ec861730447e2ada8fd81017b80548316938516939093179092556007805490911691909216179055506200049d92505050565b600080546001600160a01b038381166001600160a01b0319831681178455604051919092169283917f8be0079c531659141344cd1fd0a4f28419497f9722a3daafe3b4186f6b6457e09190a35050565b82600481019282156200026a579160200282015b828111156200026a57825182546001600160a01b0319166001600160a01b0390911617825560209092019160019091019062000233565b50620002789291506200027c565b5090565b5b808211156200027857600081556001016200027d565b8051620002a08162000484565b919050565b600082601f830112620002b757600080fd5b604051608081016001600160401b0381118282101715620002e857634e487b7160e01b600052604160045260246000fd5b604052808360808101861015620002fe57600080fd5b60005b60048110156200032e578151620003188162000484565b8352602092830192919091019060010162000301565b509195945050505050565b6000806000806000806000806101e0898b0312156200035757600080fd5b8851620003648162000484565b809850506020808a0151620003798162000484565b60408b01519098506200038c8162000484565b60608b01519097506200039f8162000484565b9550620003b08b60808c01620002a5565b9450620003c28b6101008c01620002a5565b93508a61019f8b0112620003d557600080fd5b620003df6200044d565b806101808c016101c08d018e811115620003f857600080fd5b6000805b600281101562000429578351801515811462000416578283fd5b86529486019492860192600101620003fc565b5050829650620004398162000293565b955050505050509295985092959890939650565b604080519081016001600160401b03811182821017156200047e57634e487b7160e01b600052604160045260246000fd5b60405290565b6001600160a01b03811681146200049a57600080fd5b50565b60805160601c60a05160601c60c05160601c60e05160601c613b5862000537600039600081816102f00152610e2c0152600081816106c40152818161076401528181610b1d01528181611168015281816112210152818161130c015261174301526000818161068e0152610e4e0152600081816104f901528181610cb701528181610d6501528181610e7a01526110510152613b586000f3fe608060405260043610620001be5760003560e01c80639e71527d11620000ff578063e6e6dd2f1162000095578063f2fde38b116200006c578063f2fde38b1462000655578063f887ea40146200067a578063fbfa77cf14620006b0578063fec56fe014620006e657600080fd5b8063e6e6dd2f1462000557578063e91649c014620005cd578063eb02c30114620005f257600080fd5b8063b7d3211011620000d6578063b7d3211014620004ab578063be15286114620004e5578063c9874170146200051b578063d0ebdbe7146200053257600080fd5b80639e71527d1462000411578063a226b4831462000436578063a4cf54a2146200047157600080fd5b8063481c6a7511620001755780636c5e2fd9116200014c5780636c5e2fd91462000357578063715018a614620003a55780637a3c4c1714620003bd5780638da5cb5b14620003f157600080fd5b8063481c6a7514620002ba57806361ef161f14620002dc5780636476b837146200031257600080fd5b80630b8b47fe14620001c35780630cd790f714620001dc578063176ddd3a146200021b5780633264fee5146200024057806332d53b171462000265578063449bd2cc14620002a2575b600080fd5b620001da620001d436600462001d8c565b620006fd565b005b348015620001e957600080fd5b50600154620001fe906001600160a01b031681565b6040516001600160a01b0390911681526020015b60405180910390f35b3480156200022857600080fd5b50620001fe6200023a36600462001ebf565b62000ab5565b3480156200024d57600080fd5b50620001da6200025f36600462001c7b565b62000ad6565b3480156200027257600080fd5b506200028a6200028436600462001ebf565b62000b02565b60408051921515835260208301919091520162000212565b348015620002af57600080fd5b50620001da62000c37565b348015620002c757600080fd5b50600754620001fe906001600160a01b031681565b348015620002e957600080fd5b50620001fe7f000000000000000000000000000000000000000000000000000000000000000081565b3480156200031f57600080fd5b50620003466200033136600462001e82565b60066020526000908152604090205460ff1681565b604051901515815260200162000212565b3480156200036457600080fd5b50620003966200037636600462001ca0565b600460209081526000928352604080842090915290825290205460ff1681565b604051620002129190620021c6565b348015620003b257600080fd5b50620001da620010ff565b348015620003ca57600080fd5b50620003e2620003dc36600462001ebf565b62001117565b60405190815260200162000212565b348015620003fe57600080fd5b506000546001600160a01b0316620001fe565b3480156200041e57600080fd5b50620001da6200043036600462001ea0565b62001253565b3480156200044357600080fd5b50620003466200045536600462001ebf565b600090815260036020526040902054600160a81b900460ff1690565b3480156200047e57600080fd5b50620001fe6200049036600462001c7b565b6002602052600090815260409020546001600160a01b031681565b348015620004b857600080fd5b50620001fe620004ca36600462001e82565b6005602052600090815260409020546001600160a01b031681565b348015620004f257600080fd5b50620001fe7f000000000000000000000000000000000000000000000000000000000000000081565b620001da6200052c36600462001d8c565b620012ae565b3480156200053f57600080fd5b50620001da6200055136600462001c7b565b620016df565b3480156200056457600080fd5b50620005ba6200057636600462001ebf565b60036020526000908152604090208054600182015460029092015460ff808316936001600160a01b036101008504811694600160a81b900490921692908216911685565b60405162000212959493929190620021d6565b348015620005da57600080fd5b50620001fe620005ec36600462001ebf565b6200170b565b348015620005ff57600080fd5b50620006176200061136600462001ebf565b6200171c565b604080519889526020890197909752958701949094526060860192909252608085015260a0840152151560c083015260e08201526101000162000212565b3480156200066257600080fd5b50620001da6200067436600462001c7b565b62001881565b3480156200068757600080fd5b50620001fe7f000000000000000000000000000000000000000000000000000000000000000081565b348015620006bd57600080fd5b50620001fe7f000000000000000000000000000000000000000000000000000000000000000081565b620001da620006f736600462001cdc565b62001900565b336000908152600260205260409020546001600160a01b03166200073e5760405162461bcd60e51b8152600401620007359062002217565b60405180910390fd5b6200074a888562001a07565b336000908152600260205260408120546001600160a01b037f0000000000000000000000000000000000000000000000000000000000000000811691634a3f088d911687620007a5576008546001600160a01b0316620007b2565b600c546001600160a01b03165b60085460405160e085901b6001600160e01b0319168152620007e69392916001600160a01b0316908b159060040162001ff7565b6101006040518083038186803b1580156200080057600080fd5b505afa15801562000815573d6000803e3d6000fd5b505050506040513d601f19601f820116820180604052508101906200083b919062001ef3565b50505050509250505080600014620008675760405162461bcd60e51b81526004016200073590620022ab565b84620009e557895160021415620008d057600c548a516001600160a01b03909116908b9060019081106200089f576200089f62002366565b60200260200101516001600160a01b031614620008d05760405162461bcd60e51b815260040162000735906200224e565b600c548a516001600160a01b03909116908b90600090620008f557620008f562002366565b60200260200101516001600160a01b031614620009e55760008a60008151811062000924576200092462002366565b60200260200101519050600267ffffffffffffffff8111156200094b576200094b6200237c565b60405190808252806020026020018201604052801562000975578160200160208202803683370190505b509a50808b6000815181106200098f576200098f62002366565b6001600160a01b039283166020918202929092010152600c548c519116908c906001908110620009c357620009c362002366565b60200260200101906001600160a01b031690816001600160a01b031681525050505b60026000336001600160a01b03166001600160a01b0316815260200190815260200160002060009054906101000a90046001600160a01b03166001600160a01b031663da91dfd534338d8d8d8d8d8d8d8d8d600160009054906101000a90046001600160a01b03166040518d63ffffffff1660e01b815260040162000a759b9a9998979695949392919062002099565b6000604051808303818588803b15801562000a8f57600080fd5b505af115801562000aa4573d6000803e3d6000fd5b505050505050505050505050505050565b600c816004811062000ac657600080fd5b01546001600160a01b0316905081565b62000ae062001ac2565b600180546001600160a01b0319166001600160a01b0392909216919091179055565b60008181526003602052604081205481906001600160a01b037f00000000000000000000000000000000000000000000000000000000000000008116916345a6f370916101008204169060ff600160a81b9091041662000b6e57600c546001600160a01b031662000b8a565b6000868152600360205260409020600101546001600160a01b03165b6000878152600360205260409081902060018101549054915160e086901b6001600160e01b031916815262000bdb9493926001600160a01b0390921691600160a81b900460ff169060040162001ff7565b604080518083038186803b15801562000bf357600080fd5b505afa15801562000c08573d6000803e3d6000fd5b505050506040513d601f19601f8201168201806040525081019062000c2e919062001e51565b91509150915091565b336000908152600260205260409020546001600160a01b03161562000cb35760405162461bcd60e51b815260206004820152602b60248201527f446f7070656c67616e67657220666f722074686973206164647265737320616c60448201526a1c9958591e48195e1a5cdd60aa1b606482015260840162000735565b60007f00000000000000000000000000000000000000000000000000000000000000006001600160a01b03166317d70f7c6040518163ffffffff1660e01b8152600401602060405180830381600087803b15801562000d1157600080fd5b505af115801562000d26573d6000803e3d6000fd5b505050506040513d601f19601f8201168201806040525081019062000d4c919062001ed9565b60405163fd0d101f60e01b8152600260048201529091507f00000000000000000000000000000000000000000000000000000000000000006001600160a01b03169063fd0d101f90602401600060405180830381600087803b15801562000db257600080fd5b505af115801562000dc7573d6000803e3d6000fd5b5050505062000dd562001b6e565b60005b600281101562000e1d5762000dee818462002301565b82826002811062000e035762000e0362002366565b60200201528062000e14816200231c565b91505062000dd8565b506001546007546040516000927f0000000000000000000000000000000000000000000000000000000000000000927f0000000000000000000000000000000000000000000000000000000000000000928692600892600c9230927f0000000000000000000000000000000000000000000000000000000000000000926001600160a01b039182169291169062000eb49062001b8c565b62000ec8999897969594939291906200210f565b604051809103906000f08015801562000ee5573d6000803e3d6000fd5b5033600090815260026020526040812080546001600160a01b0319166001600160a01b0384161790559091505b6002811015620010f9576040518060a0016040528082600181111562000f3c5762000f3c62002350565b600181111562000f505762000f5062002350565b8152602001836001600160a01b031681526020016001831062000f7557600062000f78565b60015b151581526008546001600160a01b03166020820152336040909101526003600062000fa4848862002301565b8152602081019190915260400160002081518154829060ff19166001838181111562000fd45762000fd462002350565b02179055506020820151815460408401511515600160a81b0260ff60a81b196001600160a01b039384166101000216610100600160b01b03199092169190911717825560608301516001830180549183166001600160a01b03199283161790556080909301516002909201805492821692909316919091179091557f0000000000000000000000000000000000000000000000000000000000000000166340c10f193362001083848862002301565b6040516001600160e01b031960e085901b1681526001600160a01b0390921660048301526024820152604401600060405180830381600087803b158015620010ca57600080fd5b505af1158015620010df573d6000803e3d6000fd5b505050508080620010f0906200231c565b91505062000f12565b50505050565b6200110962001ac2565b62001115600062001b1e565b565b600081815260036020526040812054600160a81b900460ff1615620011ef5760008281526003602052604090819020600101549051637092736960e11b81526001600160a01b0391821660048201527f00000000000000000000000000000000000000000000000000000000000000009091169063e124e6d2906024015b60206040518083038186803b158015620011ae57600080fd5b505afa158015620011c3573d6000803e3d6000fd5b505050506040513d601f19601f82011682018060405250810190620011e9919062001ed9565b92915050565b600082815260036020526040908190206001015490516340d3096b60e11b81526001600160a01b0391821660048201527f0000000000000000000000000000000000000000000000000000000000000000909116906381a612d69060240162001195565b6200125d62001ac2565b806006600084600181111562001277576200127762002350565b60018111156200128b576200128b62002350565b81526020810191909152604001600020805460ff19169115159190911790555050565b336000908152600260205260409020546001600160a01b0316620012e65760405162461bcd60e51b8152600401620007359062002217565b620012f2888562001a07565b336000908152600260205260408120546001600160a01b037f0000000000000000000000000000000000000000000000000000000000000000811691634a3f088d9116876200134d576008546001600160a01b03166200135a565b600c546001600160a01b03165b60085460405160e085901b6001600160e01b03191681526200138e9392916001600160a01b0316908b159060040162001ff7565b6101006040518083038186803b158015620013a857600080fd5b505afa158015620013bd573d6000803e3d6000fd5b505050506040513d601f19601f82011682018060405250810190620013e3919062001ef3565b505050505092505050806000146200140f5760405162461bcd60e51b81526004016200073590620022ab565b846200158d578951600214156200147857600c548a516001600160a01b03909116908b90600190811062001447576200144762002366565b60200260200101516001600160a01b031614620014785760405162461bcd60e51b815260040162000735906200224e565b600c548a516001600160a01b03909116908b906000906200149d576200149d62002366565b60200260200101516001600160a01b0316146200158d5760008a600081518110620014cc57620014cc62002366565b60200260200101519050600267ffffffffffffffff811115620014f357620014f36200237c565b6040519080825280602002602001820160405280156200151d578160200160208202803683370190505b509a50808b60008151811062001537576200153762002366565b6001600160a01b039283166020918202929092010152600c548c519116908c9060019081106200156b576200156b62002366565b60200260200101906001600160a01b031690816001600160a01b031681525050505b89600081518110620015a357620015a362002366565b60209081029190910181015133600081815260029093526040928390205492516323b872dd60e01b815260048101919091526001600160a01b039283166024820152604481018b90529116906323b872dd90606401602060405180830381600087803b1580156200161357600080fd5b505af115801562001628573d6000803e3d6000fd5b505050506040513d601f19601f820116820180604052508101906200164e919062001e31565b5060026000336001600160a01b03166001600160a01b0316815260200190815260200160002060009054906101000a90046001600160a01b03166001600160a01b0316634fbb66c334338d8d8d8d8d8d8d8d8d600160009054906101000a90046001600160a01b03166040518d63ffffffff1660e01b815260040162000a759b9a9998979695949392919062002099565b620016e962001ac2565b600780546001600160a01b0319166001600160a01b0392909216919091179055565b6008816004811062000ac657600080fd5b60008181526003602052604081205481908190819081908190819081906001600160a01b037f0000000000000000000000000000000000000000000000000000000000000000811691634a3f088d916101008204169060ff600160a81b909104166200179457600c546001600160a01b0316620017b0565b60008c8152600360205260409020600101546001600160a01b03165b60008d8152600360205260409081902060018101549054915160e086901b6001600160e01b0319168152620018019493926001600160a01b0390921691600160a81b900460ff169060040162001ff7565b6101006040518083038186803b1580156200181b57600080fd5b505afa15801562001830573d6000803e3d6000fd5b505050506040513d601f19601f8201168201806040525081019062001856919062001ef3565b809850819950829a50839b50849c50859d50869e50879f505050505050505050919395975091939597565b6200188b62001ac2565b6001600160a01b038116620018f25760405162461bcd60e51b815260206004820152602660248201527f4f776e61626c653a206e6577206f776e657220697320746865207a65726f206160448201526564647265737360d01b606482015260840162000735565b620018fd8162001b1e565b50565b336000908152600260205260409020546001600160a01b0316620019385760405162461bcd60e51b8152600401620007359062002217565b60026000336001600160a01b03166001600160a01b0316815260200190815260200160002060009054906101000a90046001600160a01b03166001600160a01b0316636f7e879934338c8c8c8c8c8c8c8c8c600160009054906101000a90046001600160a01b03166040518d63ffffffff1660e01b8152600401620019c89b9a9998979695949392919062002021565b6000604051808303818588803b158015620019e257600080fd5b505af1158015620019f7573d6000803e3d6000fd5b5050505050505050505050505050565b6001600160a01b038216600090815260046020908152604080832084151584529091528120546006919060ff16600181111562001a485762001a4862002350565b600181111562001a5c5762001a5c62002350565b815260208101919091526040016000205460ff1662001abe5760405162461bcd60e51b815260206004820152601f60248201527f74726164696e67206f6e207468697320706169722069732073746f7070656400604482015260640162000735565b5050565b6000546001600160a01b03163314620011155760405162461bcd60e51b815260206004820181905260248201527f4f776e61626c653a2063616c6c6572206973206e6f7420746865206f776e6572604482015260640162000735565b600080546001600160a01b038381166001600160a01b0319831681178455604051919092169283917f8be0079c531659141344cd1fd0a4f28419497f9722a3daafe3b4186f6b6457e09190a35050565b60405180604001604052806002906020820280368337509192915050565b61178180620023a283390190565b80356001600160a01b038116811462001bb257600080fd5b919050565b600082601f83011262001bc957600080fd5b8135602067ffffffffffffffff8083111562001be95762001be96200237c565b8260051b604051601f19603f8301168101818110848211171562001c115762001c116200237c565b6040528481528381019250868401828801850189101562001c3157600080fd5b600092505b8583101562001c5f5762001c4a8162001b9a565b84529284019260019290920191840162001c36565b50979650505050505050565b80356002811062001bb257600080fd5b60006020828403121562001c8e57600080fd5b62001c998262001b9a565b9392505050565b6000806040838503121562001cb457600080fd5b62001cbf8362001b9a565b9150602083013562001cd18162002392565b809150509250929050565b60008060008060008060008060006101208a8c03121562001cfc57600080fd5b893567ffffffffffffffff81111562001d1457600080fd5b62001d228c828d0162001bb7565b99505062001d3360208b0162001b9a565b975060408a0135965060608a0135955060808a013562001d538162002392565b945060a08a0135935060c08a0135925060e08a013591506101008a013562001d7b8162002392565b809150509295985092959850929598565b60008060008060008060008060006101208a8c03121562001dac57600080fd5b893567ffffffffffffffff81111562001dc457600080fd5b62001dd28c828d0162001bb7565b99505062001de360208b0162001b9a565b975060408a0135965060608a0135955060808a0135945060a08a013562001e0a8162002392565b8094505060c08a0135925060e08a013591506101008a013590509295985092959850929598565b60006020828403121562001e4457600080fd5b815162001c998162002392565b6000806040838503121562001e6557600080fd5b825162001e728162002392565b6020939093015192949293505050565b60006020828403121562001e9557600080fd5b62001c998262001c6b565b6000806040838503121562001eb457600080fd5b62001cbf8362001c6b565b60006020828403121562001ed257600080fd5b5035919050565b60006020828403121562001eec57600080fd5b5051919050565b600080600080600080600080610100898b03121562001f1157600080fd5b885197506020890151965060408901519550606089015194506080890151935060a0890151925060c089015162001f488162002392565b8092505060e089015190509295985092959890939650565b8060005b6004811015620010f95781546001600160a01b031684526020909301926001918201910162001f64565b600081518084526020808501945080840160005b8381101562001fc95781516001600160a01b03168752958201959082019060010162001fa2565b509495945050505050565b6002811062001ff357634e487b7160e01b600052602160045260246000fd5b9052565b6001600160a01b039485168152928416602084015292166040820152901515606082015260800190565b6001600160a01b038c8116825261016060208301819052600091620020498483018f62001f8e565b9c81166040850152606084019b909b525050608081019790975294151560a087015260c086019390935260e085019190915261010084015215156101208301529091166101409091015292915050565b6001600160a01b038c8116825261016060208301819052600091620020c18483018f62001f8e565b9c81166040850152606084019b909b525050608081019790975260a087019590955292151560c086015260e08501919091526101008401526101208301529091166101409091015292915050565b6001600160a01b038a81168252891660208083019190915261020082019060408301908a60005b6002811015620021555781518452928201929082019060010162002136565b5050505062002168608083018962001f60565b6200217861010083018862001f60565b6001600160a01b0386166101808301526001600160a01b0385166101a08301526001600160a01b0384166101c08301526001600160a01b0383166101e08301529a9950505050505050505050565b60208101620011e9828462001fd4565b60a08101620021e6828862001fd4565b6001600160a01b03958616602083015293151560408201529184166060830152909216608090920191909152919050565b6020808252601b908201527f796f7520646f6e2774206861766520446f7070656c67616e6765720000000000604082015260600190565b6020808252603e908201527f546f206f70656e207468652073686f727420706f736974696f6e2c20796f752060408201527f6861766520746f20757365205553444320617320636f6c6c61746572616c0000606082015260800190565b60208082526036908201527f596f752063616e6e6f74206f70656e2061206c6f6e672f73686f727420706f736040820152756974696f6e206174207468652073616d652074696d6560501b606082015260800190565b600082198211156200231757620023176200233a565b500190565b60006000198214156200233357620023336200233a565b5060010190565b634e487b7160e01b600052601160045260246000fd5b634e487b7160e01b600052602160045260246000fd5b634e487b7160e01b600052603260045260246000fd5b634e487b7160e01b600052604160045260246000fd5b8015158114620018fd57600080fdfe60a0604052600d805460ff60a01b191690553480156200001e57600080fd5b50604051620017813803806200178183398101604081905262000041916200026f565b600080546001600160a01b0319166001600160a01b038b16179055606088901b6001600160601b0319166080526200007c6004878162000155565b506200008c600886600462000155565b50865186516001600160a01b039081166000908152600160208181526040808420838552825280842095909555808c0180519b518516845282825285842084805282528584209b909b559a5182526002909a52828120805460ff199081168c1790915598518152919091208054909716909717909555600380549287166001600160a01b0319938416179055600c805493871693831693909317909255600d805492861692821692909217909155600e80549390941692169190911790915550620003cf915050565b8260048101928215620001a0579160200282015b82811115620001a057825182546001600160a01b0319166001600160a01b0390911617825560209092019160019091019062000169565b50620001ae929150620001b2565b5090565b5b80821115620001ae5760008155600101620001b3565b8051620001d681620003b6565b919050565b600082601f830112620001ed57600080fd5b604051608081016001600160401b03811182821017156200021e57634e487b7160e01b600052604160045260246000fd5b6040528083608081018610156200023457600080fd5b60005b6004811015620002645781516200024e81620003b6565b8352602092830192919091019060010162000237565b509195945050505050565b60008060008060008060008060006102008a8c0312156200028f57600080fd5b89516200029c81620003b6565b60208b0151909950620002af81620003b6565b9750605f8a018b13620002c157600080fd5b620002cb6200037f565b8060408c0160808d018e811115620002e257600080fd5b60005b600281101562000306578251855260209485019490920191600101620002e5565b50829a50620003168f82620001db565b9950505050506200032c8b6101008c01620001db565b94506200033d6101808b01620001c9565b93506200034e6101a08b01620001c9565b92506200035f6101c08b01620001c9565b9150620003706101e08b01620001c9565b90509295985092959850929598565b604080519081016001600160401b0381118282101715620003b057634e487b7160e01b600052604160045260246000fd5b60405290565b6001600160a01b0381168114620003cc57600080fd5b50565b60805160601c61137e6200040360003960008181610353015281816106650152818161079601526108ea015261137e6000f3fe6080604052600436106101015760003560e01c806361ef161f11610095578063d6ef601311610064578063d6ef6013146102d9578063da91dfd5146102f9578063e086e5ec1461030c578063f4f3b20014610321578063f887ea401461034157600080fd5b806361ef161f146102665780636f7e87991461028657806391c2c46914610299578063b7511c5b146102b957600080fd5b806313a51b2e116100d157806313a51b2e146101ca57806328f371aa14610210578063481c6a75146102315780634fbb66c31461025157600080fd5b806230e1b51461010d57806306b278cb1461014a5780630cb6aaf11461016a5780630cd790f7146101aa57600080fd5b3661010857005b600080fd5b34801561011957600080fd5b5061012d61012836600461111a565b610375565b6040516001600160a01b0390911681526020015b60405180910390f35b34801561015657600080fd5b5060035461012d906001600160a01b031681565b34801561017657600080fd5b5061019a61018536600461111a565b60026020526000908152604090205460ff1681565b6040519015158152602001610141565b3480156101b657600080fd5b50600d5461012d906001600160a01b031681565b3480156101d657600080fd5b506102026101e53660046110c4565b600160209081526000928352604080842090915290825290205481565b604051908152602001610141565b34801561021c57600080fd5b50600d5461019a90600160a01b900460ff1681565b34801561023d57600080fd5b50600e5461012d906001600160a01b031681565b61026461025f366004611015565b610395565b005b34801561027257600080fd5b5060005461012d906001600160a01b031681565b610264610294366004610f4d565b610423565b3480156102a557600080fd5b50600c5461012d906001600160a01b031681565b3480156102c557600080fd5b506102646102d436600461111a565b610643565b3480156102e557600080fd5b5061012d6102f436600461111a565b610a29565b610264610307366004611015565b610a39565b34801561031857600080fd5b50610264610a86565b34801561032d57600080fd5b5061026461033c366004610f0c565b610b14565b34801561034d57600080fd5b5061012d7f000000000000000000000000000000000000000000000000000000000000000081565b6008816004811061038557600080fd5b01546001600160a01b0316905081565b6103a08b8a87610c6e565b60005460405163f2ae372f60e01b81526001600160a01b039091169063f2ae372f9034906103e4908e908e908e908e908e908e908e908e908e908e90600401611265565b6000604051808303818588803b1580156103fd57600080fd5b505af1158015610411573d6000803e3d6000fd5b50505050505050505050505050505050565b6003546001600160a01b038a811660009081526001602090815260408083208b151584529091528082205490516331a9108f60e11b8152600481019190915290929190911690636352211e9060240160206040518083038186803b15801561048a57600080fd5b505afa15801561049e573d6000803e3d6000fd5b505050506040513d601f19601f820116820180604052508101906104c29190610f30565b90508b6001600160a01b0316816001600160a01b0316146105385760405162461bcd60e51b815260206004820152602560248201527f596f7520617265206e6f7420746865206f776e6572206f662074686520706f7360448201526434ba34b7b760d91b60648201526084015b60405180910390fd5b600d546001600160a01b0316331461059957600c546001600160a01b031633146105995760405162461bcd60e51b815260206004820152601260248201527134b73b30b634b21036b9b39739b2b73232b960711b604482015260640161052f565b600d546001600160a01b03163314156105af5750305b60008054906101000a90046001600160a01b03166001600160a01b0316637be7d141348d8d8d8d8d888e8e8e8e8e6040518d63ffffffff1660e01b81526004016106039b9a99989796959493929190611190565b6000604051808303818588803b15801561061c57600080fd5b505af1158015610630573d6000803e3d6000fd5b5050505050505050505050505050505050565b6000546040516338c74dd960e01b81526001600160a01b0391821660048201527f0000000000000000000000000000000000000000000000000000000000000000909116906338c74dd990602401600060405180830381600087803b1580156106ab57600080fd5b505af11580156106bf573d6000803e3d6000fd5b5050505060005b600481101561098957600481600481106106e2576106e26112f9565b015460005460405163095ea7b360e01b81526001600160a01b0391821660048201526024810185905291169063095ea7b390604401602060405180830381600087803b15801561073157600080fd5b505af1158015610745573d6000803e3d6000fd5b505050506040513d601f19601f8201168201806040525081019061076991906110fd565b506004816004811061077d5761077d6112f9565b015460405163095ea7b360e01b81526001600160a01b037f000000000000000000000000000000000000000000000000000000000000000081166004830152602482018590529091169063095ea7b390604401602060405180830381600087803b1580156107ea57600080fd5b505af11580156107fe573d6000803e3d6000fd5b505050506040513d601f19601f8201168201806040525081019061082291906110fd565b5060088160048110610836576108366112f9565b015460005460405163095ea7b360e01b81526001600160a01b0391821660048201526024810185905291169063095ea7b390604401602060405180830381600087803b15801561088557600080fd5b505af1158015610899573d6000803e3d6000fd5b505050506040513d601f19601f820116820180604052508101906108bd91906110fd565b50600881600481106108d1576108d16112f9565b015460405163095ea7b360e01b81526001600160a01b037f000000000000000000000000000000000000000000000000000000000000000081166004830152602482018590529091169063095ea7b390604401602060405180830381600087803b15801561093e57600080fd5b505af1158015610952573d6000803e3d6000fd5b505050506040513d601f19601f8201168201806040525081019061097691906110fd565b5080610981816112d0565b9150506106c6565b50600854600d5460405163095ea7b360e01b81526001600160a01b0391821660048201526024810184905291169063095ea7b390604401602060405180830381600087803b1580156109da57600080fd5b505af11580156109ee573d6000803e3d6000fd5b505050506040513d601f19601f82011682018060405250810190610a1291906110fd565b5050600d805460ff60a01b1916600160a01b179055565b6004816004811061038557600080fd5b610a448b8a87610c6e565b600054604051632dc4746360e11b81526001600160a01b0390911690635b88e8c69034906103e4908e908e908d908d908d908d908d908d908d90600401611203565b600e546001600160a01b03163314610ad85760405162461bcd60e51b81526020600482015260156024820152743cb7ba9030b932903737ba10309036b0b730b3b2b960591b604482015260640161052f565b600e546040516001600160a01b03909116904780156108fc02916000818181858888f19350505050158015610b11573d6000803e3d6000fd5b50565b600e546001600160a01b03163314610b665760405162461bcd60e51b81526020600482015260156024820152743cb7ba9030b932903737ba10309036b0b730b3b2b960591b604482015260640161052f565b600e546040516370a0823160e01b81523060048201526001600160a01b038381169263a9059cbb9291169083906370a082319060240160206040518083038186803b158015610bb457600080fd5b505afa158015610bc8573d6000803e3d6000fd5b505050506040513d601f19601f82011682018060405250810190610bec9190611133565b6040516001600160e01b031960e085901b1681526001600160a01b0390921660048301526024820152604401602060405180830381600087803b158015610c3257600080fd5b505af1158015610c46573d6000803e3d6000fd5b505050506040513d601f19601f82011682018060405250810190610c6a91906110fd565b5050565b6003546001600160a01b0383811660009081526001602090815260408083208615158452909152908190205490516331a9108f60e11b81528287169390921691636352211e91610cc49160040190815260200190565b60206040518083038186803b158015610cdc57600080fd5b505afa158015610cf0573d6000803e3d6000fd5b505050506040513d601f19601f82011682018060405250810190610d149190610f30565b6001600160a01b031614610d765760405162461bcd60e51b8152602060048201526024808201527f596f75207265206e6f7420746865206f776e6572206f662074686520706f73696044820152633a34b7b760e11b606482015260840161052f565b6001600160a01b038216600090815260016020908152604080832084151584528252808320548352600290915290205460ff16610de35760405162461bcd60e51b815260206004820152600b60248201526a696e76616c6964206b657960a81b604482015260640161052f565b600d546001600160a01b03163314610e4457600c546001600160a01b03163314610e445760405162461bcd60e51b815260206004820152601260248201527134b73b30b634b21036b9b39739b2b73232b960711b604482015260640161052f565b505050565b8035610e5481611325565b919050565b600082601f830112610e6a57600080fd5b8135602067ffffffffffffffff80831115610e8757610e8761130f565b8260051b604051601f19603f83011681018181108482111715610eac57610eac61130f565b60405284815283810192508684018288018501891015610ecb57600080fd5b600092505b85831015610ef557610ee181610e49565b845292840192600192909201918401610ed0565b50979650505050505050565b8035610e548161133a565b600060208284031215610f1e57600080fd5b8135610f2981611325565b9392505050565b600060208284031215610f4257600080fd5b8151610f2981611325565b60008060008060008060008060008060006101608c8e031215610f6f57600080fd5b8b35610f7a81611325565b9a5060208c013567ffffffffffffffff811115610f9657600080fd5b610fa28e828f01610e59565b9a505060408c0135610fb381611325565b985060608c0135975060808c01359650610fcf60a08d01610f01565b955060c08c0135945060e08c013593506101008c01359250610ff46101208d01610f01565b91506110036101408d01610e49565b90509295989b509295989b9093969950565b60008060008060008060008060008060006101608c8e03121561103757600080fd5b8b3561104281611325565b9a5060208c013567ffffffffffffffff81111561105e57600080fd5b61106a8e828f01610e59565b9a505060408c013561107b81611325565b985060608c0135975060808c0135965060a08c0135955061109e60c08d01610f01565b945060e08c013593506101008c013592506101208c013591506110036101408d01610e49565b600080604083850312156110d757600080fd5b82356110e281611325565b915060208301356110f28161133a565b809150509250929050565b60006020828403121561110f57600080fd5b8151610f298161133a565b60006020828403121561112c57600080fd5b5035919050565b60006020828403121561114557600080fd5b5051919050565b600081518084526020808501945080840160005b838110156111855781516001600160a01b031687529582019590820190600101611160565b509495945050505050565b60006101608083526111a48184018f61114c565b6001600160a01b039d8e166020850152604084019c909c5250506060810198909852951515608088015293881660a087015260c086019290925260e0850152610100840152151561012083015290921661014090920191909152919050565b60006101208083526112178184018d61114c565b6001600160a01b039b8c166020850152604084019a909a5250506060810196909652931515608086015260a085019290925260c084015260e083015290921661010090920191909152919050565b60006101408083526112798184018e61114c565b6001600160a01b039c8d166020850152604084019b909b5250506060810197909752608087019590955292151560a086015260c085019190915260e084015261010083015290921661012090920191909152919050565b60006000198214156112f257634e487b7160e01b600052601160045260246000fd5b5060010190565b634e487b7160e01b600052603260045260246000fd5b634e487b7160e01b600052604160045260246000fd5b6001600160a01b0381168114610b1157600080fd5b8015158114610b1157600080fdfea26469706673582212208b5d9b3dd4de04619ca72737ed1bda9b455f606e01c1689a7a7b1d86df2a000264736f6c63430008060033a2646970667358221220b46da0517310d800c05ef976aee05418c0512b261e77a22be5220d5d67bd392264736f6c63430008060033",
  "devdoc": {
    "kind": "dev",
    "methods": {
      "currentPrice(uint256)": {
        "params": {
          "id": "position ID"
        }
      },
      "getPosition(uint256)": {
        "params": {
          "id": "collateral ID*"
        }
      },
      "getPositionDelta(uint256)": {
        "params": {
          "id": "collateral ID*"
        }
      },
      "owner()": {
        "details": "Returns the address of the current owner."
      },
      "renounceOwnership()": {
        "details": "Leaves the contract without owner. It will not be possible to call `onlyOwner` functions anymore. Can only be called by the current owner. NOTE: Renouncing ownership will leave the contract without an owner, thereby removing any functionality that is only available to the owner."
      },
      "setDDL_GMX(address)": {
        "params": {
          "value": "the address of DDL_GMX*"
        }
      },
      "setPermission(uint8,bool)": {
        "params": {
          "symbol": "symbol name",
          "value": "true or false *"
        }
      },
      "transferOwnership(address)": {
        "details": "Transfers ownership of the contract to a new account (`newOwner`). Can only be called by the current owner."
      }
    },
    "version": 1
  },
  "userdoc": {
    "kind": "user",
    "methods": {
      "createDecreasePosition(address[],address,uint256,uint256,bool,uint256,uint256,uint256,bool)": {
        "notice": "used to decrease position on GMX*"
      },
      "createDoppelgangerGMX()": {
        "notice": "creates Doppelganger account for the user*"
      },
      "createIncreasePosition(address[],address,uint256,uint256,uint256,bool,uint256,uint256,bytes32)": {
        "notice": "used to increase position on GMX*"
      },
      "createIncreasePositionETH(address[],address,uint256,uint256,uint256,bool,uint256,uint256,bytes32)": {
        "notice": "used to increase position on GMX (only ETH)*"
      },
      "currentPrice(uint256)": {
        "notice": "returns currentPrice for the asset*"
      },
      "getPosition(uint256)": {
        "notice": "returns getPosition by the collateral"
      },
      "getPositionDelta(uint256)": {
        "notice": "returns getPositionDelta from GMX by the collateral ID"
      },
      "setDDL_GMX(address)": {
        "notice": "set new DDL_GMX address"
      },
      "setPermission(uint8,bool)": {
        "notice": "set permissions for trading pairs"
      }
    },
    "version": 1
  },
  "storageLayout": {
    "storage": [
      {
        "astId": 7,
        "contract": "contracts/AccountManager.sol:AccountManager",
        "label": "_owner",
        "offset": 0,
        "slot": "0",
        "type": "t_address"
      },
      {
        "astId": 3670,
        "contract": "contracts/AccountManager.sol:AccountManager",
        "label": "ddl_gmx",
        "offset": 0,
        "slot": "1",
        "type": "t_address"
      },
      {
        "astId": 3682,
        "contract": "contracts/AccountManager.sol:AccountManager",
        "label": "doppelgangerMap",
        "offset": 0,
        "slot": "2",
        "type": "t_mapping(t_address,t_address_payable)"
      },
      {
        "astId": 3700,
        "contract": "contracts/AccountManager.sol:AccountManager",
        "label": "keyData",
        "offset": 0,
        "slot": "3",
        "type": "t_mapping(t_uint256,t_struct(KeyInformation)3694_storage)"
      },
      {
        "astId": 3707,
        "contract": "contracts/AccountManager.sol:AccountManager",
        "label": "symbolByIndexToken",
        "offset": 0,
        "slot": "4",
        "type": "t_mapping(t_address,t_mapping(t_bool,t_enum(Symbols)5115))"
      },
      {
        "astId": 3713,
        "contract": "contracts/AccountManager.sol:AccountManager",
        "label": "indexTokenBySymbol",
        "offset": 0,
        "slot": "5",
        "type": "t_mapping(t_enum(Symbols)5115,t_address)"
      },
      {
        "astId": 3718,
        "contract": "contracts/AccountManager.sol:AccountManager",
        "label": "permissions",
        "offset": 0,
        "slot": "6",
        "type": "t_mapping(t_enum(Symbols)5115,t_bool)"
      },
      {
        "astId": 3720,
        "contract": "contracts/AccountManager.sol:AccountManager",
        "label": "manager",
        "offset": 0,
        "slot": "7",
        "type": "t_address"
      },
      {
        "astId": 3724,
        "contract": "contracts/AccountManager.sol:AccountManager",
        "label": "arrLongIndexToken",
        "offset": 0,
        "slot": "8",
        "type": "t_array(t_address)4_storage"
      },
      {
        "astId": 3728,
        "contract": "contracts/AccountManager.sol:AccountManager",
        "label": "arrShortIndexToken",
        "offset": 0,
        "slot": "12",
        "type": "t_array(t_address)4_storage"
      }
    ],
    "types": {
      "t_address": {
        "encoding": "inplace",
        "label": "address",
        "numberOfBytes": "20"
      },
      "t_address_payable": {
        "encoding": "inplace",
        "label": "address payable",
        "numberOfBytes": "20"
      },
      "t_array(t_address)4_storage": {
        "base": "t_address",
        "encoding": "inplace",
        "label": "address[4]",
        "numberOfBytes": "128"
      },
      "t_bool": {
        "encoding": "inplace",
        "label": "bool",
        "numberOfBytes": "1"
      },
      "t_enum(Symbols)5115": {
        "encoding": "inplace",
        "label": "enum IAccountManager.Symbols",
        "numberOfBytes": "1"
      },
      "t_mapping(t_address,t_address_payable)": {
        "encoding": "mapping",
        "key": "t_address",
        "label": "mapping(address => address payable)",
        "numberOfBytes": "32",
        "value": "t_address_payable"
      },
      "t_mapping(t_address,t_mapping(t_bool,t_enum(Symbols)5115))": {
        "encoding": "mapping",
        "key": "t_address",
        "label": "mapping(address => mapping(bool => enum IAccountManager.Symbols))",
        "numberOfBytes": "32",
        "value": "t_mapping(t_bool,t_enum(Symbols)5115)"
      },
      "t_mapping(t_bool,t_enum(Symbols)5115)": {
        "encoding": "mapping",
        "key": "t_bool",
        "label": "mapping(bool => enum IAccountManager.Symbols)",
        "numberOfBytes": "32",
        "value": "t_enum(Symbols)5115"
      },
      "t_mapping(t_enum(Symbols)5115,t_address)": {
        "encoding": "mapping",
        "key": "t_enum(Symbols)5115",
        "label": "mapping(enum IAccountManager.Symbols => address)",
        "numberOfBytes": "32",
        "value": "t_address"
      },
      "t_mapping(t_enum(Symbols)5115,t_bool)": {
        "encoding": "mapping",
        "key": "t_enum(Symbols)5115",
        "label": "mapping(enum IAccountManager.Symbols => bool)",
        "numberOfBytes": "32",
        "value": "t_bool"
      },
      "t_mapping(t_uint256,t_struct(KeyInformation)3694_storage)": {
        "encoding": "mapping",
        "key": "t_uint256",
        "label": "mapping(uint256 => struct AccountManager.KeyInformation)",
        "numberOfBytes": "32",
        "value": "t_struct(KeyInformation)3694_storage"
      },
      "t_struct(KeyInformation)3694_storage": {
        "encoding": "inplace",
        "label": "struct AccountManager.KeyInformation",
        "members": [
          {
            "astId": 3685,
            "contract": "contracts/AccountManager.sol:AccountManager",
            "label": "symbol",
            "offset": 0,
            "slot": "0",
            "type": "t_enum(Symbols)5115"
          },
          {
            "astId": 3687,
            "contract": "contracts/AccountManager.sol:AccountManager",
            "label": "doppelgangerContract",
            "offset": 1,
            "slot": "0",
            "type": "t_address"
          },
          {
            "astId": 3689,
            "contract": "contracts/AccountManager.sol:AccountManager",
            "label": "isLong",
            "offset": 21,
            "slot": "0",
            "type": "t_bool"
          },
          {
            "astId": 3691,
            "contract": "contracts/AccountManager.sol:AccountManager",
            "label": "indexToken",
            "offset": 0,
            "slot": "1",
            "type": "t_address"
          },
          {
            "astId": 3693,
            "contract": "contracts/AccountManager.sol:AccountManager",
            "label": "user",
            "offset": 0,
            "slot": "2",
            "type": "t_address"
          }
        ],
        "numberOfBytes": "96"
      },
      "t_uint256": {
        "encoding": "inplace",
        "label": "uint256",
        "numberOfBytes": "32"
      }
    }
  }
}