{
  "address": "0x8a11F0f83CC80C4066B550DA1C842CC5b0299cBe",
  "abi": [
    {
      "inputs": [
        {
          "internalType": "contract IPositionRouter",
          "name": "_positionRouter",
          "type": "address"
        },
        {
          "internalType": "contract IAccountManager",
          "name": "_accountManager",
          "type": "address"
        },
        {
          "internalType": "contract IVault",
          "name": "_vault",
          "type": "address"
        },
        {
          "internalType": "contract IERC721",
          "name": "_collateralToken",
          "type": "address"
        },
        {
          "internalType": "contract IERC20",
          "name": "_USDC",
          "type": "address"
        },
        {
          "internalType": "uint256",
          "name": "_minBorrowLimit",
          "type": "uint256"
        },
        {
          "internalType": "uint256",
          "name": "_ltv",
          "type": "uint256"
        },
        {
          "internalType": "uint256",
          "name": "_COLLATERAL_DECIMALS",
          "type": "uint256"
        },
        {
          "internalType": "address",
          "name": "_IndexPrice",
          "type": "address"
        },
        {
          "internalType": "uint256",
          "name": "_BorderPriceCoef",
          "type": "uint256"
        }
      ],
      "stateMutability": "nonpayable",
      "type": "constructor"
    },
    {
      "anonymous": false,
      "inputs": [
        {
          "indexed": true,
          "internalType": "address",
          "name": "user",
          "type": "address"
        },
        {
          "indexed": true,
          "internalType": "uint256",
          "name": "id",
          "type": "uint256"
        },
        {
          "indexed": false,
          "internalType": "uint256",
          "name": "amount",
          "type": "uint256"
        },
        {
          "indexed": false,
          "internalType": "address",
          "name": "strategy",
          "type": "address"
        },
        {
          "indexed": false,
          "internalType": "uint256",
          "name": "timestamp",
          "type": "uint256"
        }
      ],
      "name": "Borrow",
      "type": "event"
    },
    {
      "anonymous": false,
      "inputs": [
        {
          "indexed": true,
          "internalType": "address",
          "name": "user",
          "type": "address"
        },
        {
          "indexed": true,
          "internalType": "uint256",
          "name": "optionID",
          "type": "uint256"
        },
        {
          "indexed": false,
          "internalType": "uint256",
          "name": "amount",
          "type": "uint256"
        },
        {
          "indexed": false,
          "internalType": "uint256",
          "name": "poolProfit",
          "type": "uint256"
        },
        {
          "indexed": false,
          "internalType": "uint256",
          "name": "liqFee",
          "type": "uint256"
        }
      ],
      "name": "ForcedExercise",
      "type": "event"
    },
    {
      "anonymous": false,
      "inputs": [
        {
          "indexed": true,
          "internalType": "address",
          "name": "user",
          "type": "address"
        },
        {
          "indexed": true,
          "internalType": "uint256",
          "name": "optionID",
          "type": "uint256"
        },
        {
          "indexed": false,
          "internalType": "uint256",
          "name": "amount",
          "type": "uint256"
        },
        {
          "indexed": false,
          "internalType": "uint256",
          "name": "poolProfit",
          "type": "uint256"
        },
        {
          "indexed": false,
          "internalType": "uint256",
          "name": "liqFee",
          "type": "uint256"
        }
      ],
      "name": "Liquidate",
      "type": "event"
    },
    {
      "anonymous": false,
      "inputs": [
        {
          "indexed": true,
          "internalType": "address",
          "name": "user",
          "type": "address"
        },
        {
          "indexed": true,
          "internalType": "uint256",
          "name": "optionID",
          "type": "uint256"
        },
        {
          "indexed": false,
          "internalType": "uint256",
          "name": "userReturn",
          "type": "uint256"
        },
        {
          "indexed": false,
          "internalType": "uint256",
          "name": "poolReturn",
          "type": "uint256"
        },
        {
          "indexed": false,
          "internalType": "uint256",
          "name": "liqFee",
          "type": "uint256"
        }
      ],
      "name": "LiquidateByBorderPrice",
      "type": "event"
    },
    {
      "anonymous": false,
      "inputs": [
        {
          "indexed": true,
          "internalType": "address",
          "name": "previousOwner",
          "type": "address"
        },
        {
          "indexed": true,
          "internalType": "address",
          "name": "newOwner",
          "type": "address"
        }
      ],
      "name": "OwnershipTransferred",
      "type": "event"
    },
    {
      "anonymous": false,
      "inputs": [
        {
          "indexed": true,
          "internalType": "address",
          "name": "user",
          "type": "address"
        },
        {
          "indexed": true,
          "internalType": "uint256",
          "name": "optionID",
          "type": "uint256"
        },
        {
          "indexed": false,
          "internalType": "uint256",
          "name": "amount",
          "type": "uint256"
        }
      ],
      "name": "Repay",
      "type": "event"
    },
    {
      "anonymous": false,
      "inputs": [
        {
          "indexed": true,
          "internalType": "address",
          "name": "user",
          "type": "address"
        },
        {
          "indexed": true,
          "internalType": "uint256",
          "name": "optionID",
          "type": "uint256"
        }
      ],
      "name": "Unlock",
      "type": "event"
    },
    {
      "inputs": [],
      "name": "COLLATERAL_DECIMALS",
      "outputs": [
        {
          "internalType": "uint256",
          "name": "",
          "type": "uint256"
        }
      ],
      "stateMutability": "view",
      "type": "function"
    },
    {
      "inputs": [],
      "name": "INTEREST_RATE_DECIMALS",
      "outputs": [
        {
          "internalType": "uint256",
          "name": "",
          "type": "uint256"
        }
      ],
      "stateMutability": "view",
      "type": "function"
    },
    {
      "inputs": [],
      "name": "LTV",
      "outputs": [
        {
          "internalType": "uint256",
          "name": "",
          "type": "uint256"
        }
      ],
      "stateMutability": "view",
      "type": "function"
    },
    {
      "inputs": [],
      "name": "LTV_DECIMALS",
      "outputs": [
        {
          "internalType": "uint256",
          "name": "",
          "type": "uint256"
        }
      ],
      "stateMutability": "view",
      "type": "function"
    },
    {
      "inputs": [],
      "name": "USDC",
      "outputs": [
        {
          "internalType": "contract IERC20",
          "name": "",
          "type": "address"
        }
      ],
      "stateMutability": "view",
      "type": "function"
    },
    {
      "inputs": [],
      "name": "accountManager",
      "outputs": [
        {
          "internalType": "contract IAccountManager",
          "name": "",
          "type": "address"
        }
      ],
      "stateMutability": "view",
      "type": "function"
    },
    {
      "inputs": [
        {
          "internalType": "uint256",
          "name": "id",
          "type": "uint256"
        }
      ],
      "name": "borderPrice",
      "outputs": [
        {
          "internalType": "uint256",
          "name": "price",
          "type": "uint256"
        }
      ],
      "stateMutability": "view",
      "type": "function"
    },
    {
      "inputs": [
        {
          "internalType": "address",
          "name": "",
          "type": "address"
        }
      ],
      "name": "borderPriceCoef",
      "outputs": [
        {
          "internalType": "uint256",
          "name": "",
          "type": "uint256"
        }
      ],
      "stateMutability": "view",
      "type": "function"
    },
    {
      "inputs": [
        {
          "internalType": "uint256",
          "name": "id",
          "type": "uint256"
        }
      ],
      "name": "borderPriceCoefByIndexToken",
      "outputs": [
        {
          "internalType": "uint256",
          "name": "priceCoef",
          "type": "uint256"
        }
      ],
      "stateMutability": "view",
      "type": "function"
    },
    {
      "inputs": [
        {
          "internalType": "uint256",
          "name": "id",
          "type": "uint256"
        },
        {
          "internalType": "uint256",
          "name": "amount",
          "type": "uint256"
        }
      ],
      "name": "borrow",
      "outputs": [],
      "stateMutability": "nonpayable",
      "type": "function"
    },
    {
      "inputs": [
        {
          "internalType": "uint256",
          "name": "",
          "type": "uint256"
        }
      ],
      "name": "borrowedByCollateral",
      "outputs": [
        {
          "internalType": "uint256",
          "name": "borrowed",
          "type": "uint256"
        },
        {
          "internalType": "uint256",
          "name": "newBorrowTimestamp",
          "type": "uint256"
        }
      ],
      "stateMutability": "view",
      "type": "function"
    },
    {
      "inputs": [
        {
          "internalType": "uint256",
          "name": "id",
          "type": "uint256"
        }
      ],
      "name": "calculateUpcomingFee",
      "outputs": [
        {
          "internalType": "uint256",
          "name": "upcomingFee",
          "type": "uint256"
        }
      ],
      "stateMutability": "view",
      "type": "function"
    },
    {
      "inputs": [],
      "name": "closeSlippage",
      "outputs": [
        {
          "internalType": "int256",
          "name": "",
          "type": "int256"
        }
      ],
      "stateMutability": "view",
      "type": "function"
    },
    {
      "inputs": [
        {
          "internalType": "uint256",
          "name": "id",
          "type": "uint256"
        }
      ],
      "name": "collateralInfo",
      "outputs": [
        {
          "internalType": "uint256",
          "name": "amount",
          "type": "uint256"
        },
        {
          "internalType": "uint256",
          "name": "price",
          "type": "uint256"
        }
      ],
      "stateMutability": "view",
      "type": "function"
    },
    {
      "inputs": [
        {
          "internalType": "uint256",
          "name": "",
          "type": "uint256"
        }
      ],
      "name": "collateralOwner",
      "outputs": [
        {
          "internalType": "address",
          "name": "",
          "type": "address"
        }
      ],
      "stateMutability": "view",
      "type": "function"
    },
    {
      "inputs": [
        {
          "internalType": "uint256",
          "name": "id",
          "type": "uint256"
        }
      ],
      "name": "collateralState",
      "outputs": [
        {
          "internalType": "bool",
          "name": "",
          "type": "bool"
        }
      ],
      "stateMutability": "view",
      "type": "function"
    },
    {
      "inputs": [
        {
          "internalType": "uint256",
          "name": "id",
          "type": "uint256"
        }
      ],
      "name": "collateralStateByBorderPrice",
      "outputs": [
        {
          "internalType": "bool",
          "name": "",
          "type": "bool"
        }
      ],
      "stateMutability": "view",
      "type": "function"
    },
    {
      "inputs": [],
      "name": "collateralToken",
      "outputs": [
        {
          "internalType": "contract IERC721",
          "name": "",
          "type": "address"
        }
      ],
      "stateMutability": "view",
      "type": "function"
    },
    {
      "inputs": [
        {
          "internalType": "uint256",
          "name": "id",
          "type": "uint256"
        }
      ],
      "name": "currentPrice",
      "outputs": [
        {
          "internalType": "uint256",
          "name": "",
          "type": "uint256"
        }
      ],
      "stateMutability": "view",
      "type": "function"
    },
    {
      "inputs": [
        {
          "internalType": "uint256",
          "name": "id",
          "type": "uint256"
        }
      ],
      "name": "currentTriggerPrice",
      "outputs": [
        {
          "internalType": "uint256",
          "name": "price",
          "type": "uint256"
        }
      ],
      "stateMutability": "view",
      "type": "function"
    },
    {
      "inputs": [
        {
          "internalType": "bytes32",
          "name": "positionKey",
          "type": "bytes32"
        },
        {
          "internalType": "bool",
          "name": "isExecuted",
          "type": "bool"
        },
        {
          "internalType": "bool",
          "name": "isIncrease",
          "type": "bool"
        }
      ],
      "name": "gmxPositionCallback",
      "outputs": [],
      "stateMutability": "nonpayable",
      "type": "function"
    },
    {
      "inputs": [],
      "name": "interestRate",
      "outputs": [
        {
          "internalType": "uint256",
          "name": "",
          "type": "uint256"
        }
      ],
      "stateMutability": "view",
      "type": "function"
    },
    {
      "inputs": [
        {
          "internalType": "uint256",
          "name": "id",
          "type": "uint256"
        }
      ],
      "name": "intrinsicValueOf",
      "outputs": [
        {
          "internalType": "uint256",
          "name": "delta",
          "type": "uint256"
        }
      ],
      "stateMutability": "view",
      "type": "function"
    },
    {
      "inputs": [
        {
          "internalType": "uint256",
          "name": "id",
          "type": "uint256"
        }
      ],
      "name": "isLong",
      "outputs": [
        {
          "internalType": "bool",
          "name": "",
          "type": "bool"
        }
      ],
      "stateMutability": "view",
      "type": "function"
    },
    {
      "inputs": [
        {
          "internalType": "uint256",
          "name": "id",
          "type": "uint256"
        }
      ],
      "name": "liqPrice",
      "outputs": [
        {
          "internalType": "uint256",
          "name": "price",
          "type": "uint256"
        }
      ],
      "stateMutability": "view",
      "type": "function"
    },
    {
      "inputs": [
        {
          "internalType": "uint256",
          "name": "id",
          "type": "uint256"
        }
      ],
      "name": "liquidate",
      "outputs": [],
      "stateMutability": "payable",
      "type": "function"
    },
    {
      "inputs": [
        {
          "internalType": "uint256",
          "name": "id",
          "type": "uint256"
        }
      ],
      "name": "liquidateByBorderPrice",
      "outputs": [],
      "stateMutability": "payable",
      "type": "function"
    },
    {
      "inputs": [
        {
          "internalType": "uint256",
          "name": "id",
          "type": "uint256"
        }
      ],
      "name": "lockCollateral",
      "outputs": [],
      "stateMutability": "nonpayable",
      "type": "function"
    },
    {
      "inputs": [
        {
          "internalType": "uint256",
          "name": "id",
          "type": "uint256"
        }
      ],
      "name": "maxBorrowLimit",
      "outputs": [
        {
          "internalType": "uint256",
          "name": "",
          "type": "uint256"
        }
      ],
      "stateMutability": "view",
      "type": "function"
    },
    {
      "inputs": [],
      "name": "minBorrowLimit",
      "outputs": [
        {
          "internalType": "uint256",
          "name": "",
          "type": "uint256"
        }
      ],
      "stateMutability": "view",
      "type": "function"
    },
    {
      "inputs": [],
      "name": "owner",
      "outputs": [
        {
          "internalType": "address",
          "name": "",
          "type": "address"
        }
      ],
      "stateMutability": "view",
      "type": "function"
    },
    {
      "inputs": [],
      "name": "pool",
      "outputs": [
        {
          "internalType": "contract IPoolDDL",
          "name": "",
          "type": "address"
        }
      ],
      "stateMutability": "view",
      "type": "function"
    },
    {
      "inputs": [
        {
          "internalType": "uint256",
          "name": "",
          "type": "uint256"
        }
      ],
      "name": "positionInfo",
      "outputs": [
        {
          "internalType": "address",
          "name": "indexToken",
          "type": "address"
        },
        {
          "internalType": "uint256",
          "name": "amount",
          "type": "uint256"
        },
        {
          "internalType": "uint256",
          "name": "openPrice",
          "type": "uint256"
        },
        {
          "internalType": "bool",
          "name": "isLong",
          "type": "bool"
        }
      ],
      "stateMutability": "view",
      "type": "function"
    },
    {
      "inputs": [],
      "name": "positionRouter",
      "outputs": [
        {
          "internalType": "contract IPositionRouter",
          "name": "",
          "type": "address"
        }
      ],
      "stateMutability": "view",
      "type": "function"
    },
    {
      "inputs": [],
      "name": "renounceOwnership",
      "outputs": [],
      "stateMutability": "nonpayable",
      "type": "function"
    },
    {
      "inputs": [
        {
          "internalType": "uint256",
          "name": "id",
          "type": "uint256"
        },
        {
          "internalType": "uint256",
          "name": "amount",
          "type": "uint256"
        }
      ],
      "name": "repay",
      "outputs": [],
      "stateMutability": "nonpayable",
      "type": "function"
    },
    {
      "inputs": [
        {
          "internalType": "uint256",
          "name": "value",
          "type": "uint256"
        },
        {
          "internalType": "address",
          "name": "indexToken",
          "type": "address"
        }
      ],
      "name": "setBorderPriceCoef",
      "outputs": [],
      "stateMutability": "nonpayable",
      "type": "function"
    },
    {
      "inputs": [
        {
          "internalType": "uint256",
          "name": "value",
          "type": "uint256"
        }
      ],
      "name": "setInterestRate",
      "outputs": [],
      "stateMutability": "nonpayable",
      "type": "function"
    },
    {
      "inputs": [
        {
          "internalType": "uint256",
          "name": "value",
          "type": "uint256"
        }
      ],
      "name": "setInterestRateDecimals",
      "outputs": [],
      "stateMutability": "nonpayable",
      "type": "function"
    },
    {
      "inputs": [
        {
          "internalType": "uint256",
          "name": "value",
          "type": "uint256"
        }
      ],
      "name": "setLTV",
      "outputs": [],
      "stateMutability": "nonpayable",
      "type": "function"
    },
    {
      "inputs": [
        {
          "internalType": "uint256",
          "name": "value",
          "type": "uint256"
        }
      ],
      "name": "setMinBorrowLimit",
      "outputs": [],
      "stateMutability": "nonpayable",
      "type": "function"
    },
    {
      "inputs": [
        {
          "internalType": "address",
          "name": "value",
          "type": "address"
        }
      ],
      "name": "setPool",
      "outputs": [],
      "stateMutability": "nonpayable",
      "type": "function"
    },
    {
      "inputs": [
        {
          "internalType": "address",
          "name": "newOwner",
          "type": "address"
        }
      ],
      "name": "transferOwnership",
      "outputs": [],
      "stateMutability": "nonpayable",
      "type": "function"
    },
    {
      "inputs": [
        {
          "internalType": "uint256",
          "name": "id",
          "type": "uint256"
        }
      ],
      "name": "unlock",
      "outputs": [],
      "stateMutability": "nonpayable",
      "type": "function"
    },
    {
      "inputs": [],
      "name": "vault",
      "outputs": [
        {
          "internalType": "contract IVault",
          "name": "",
          "type": "address"
        }
      ],
      "stateMutability": "view",
      "type": "function"
    }
  ],
  "transactionHash": "0x0fad739a2299f728d30d7a5df4eac17247fee033db317eee5ef89aece7099585",
  "args": [
    "0xb87a436B93fFE9D75c5cFA7bAcFff96430b09868",
    "0x3E00742B94607a5c7DDfd00c5c156a9c411D771A",
    "0x489ee077994B6658eAfA855C308275EAd8097C4A",
    "0x1E80d34cA3A302670D423E6C3A5dD8c7b46250EB",
    "0xFF970A61A04b1cA14834A43f5dE4533eBDDB5CC8",
    0,
    5000,
    6,
    "0x82aF49447D8a07e3bd95BD0d56f35241523fBab1",
    0
  ],
  "numDeployments": 1,
  "solcInputHash": "650e5ed4a052a54c12357f186d95de3e",
  "bytecode": "0x60806040526127106002556a0fbce2c2bf9562000000006005556c0c9f2c9cd04674edea40000000600655600a600f553480156200003c57600080fd5b5060405162003a5938038062003a598339810160408190526200005f9162000171565b86868686866200006f3362000121565b600380546001600160a01b038088166001600160a01b031992831617909255600480549287169290911691909117905560078390556001829055620000b681600a62000279565b6008555050600e80546001600160a01b039e8f166001600160a01b031991821617909155600c80549d8f169d82169d909d17909c555050600d8054998c1699909a16989098179098559097166000908152601260205260409020959095555062000373945050505050565b600080546001600160a01b038381166001600160a01b0319831681178455604051919092169283917f8be0079c531659141344cd1fd0a4f28419497f9722a3daafe3b4186f6b6457e09190a35050565b6000806000806000806000806000806101408b8d0312156200019257600080fd5b8a516200019f816200035a565b60208c0151909a50620001b2816200035a565b60408c0151909950620001c5816200035a565b60608c0151909850620001d8816200035a565b60808c0151909750620001eb816200035a565b8096505060a08b0151945060c08b0151935060e08b015192506101008b015162000215816200035a565b809250506101208b015190509295989b9194979a5092959850565b600181815b808511156200027157816000190482111562000255576200025562000344565b808516156200026357918102915b93841c939080029062000235565b509250929050565b60006200028783836200028e565b9392505050565b6000826200029f575060016200033e565b81620002ae575060006200033e565b8160018114620002c75760028114620002d257620002f2565b60019150506200033e565b60ff841115620002e657620002e662000344565b50506001821b6200033e565b5060208310610133831016604e8410600b841016171562000317575081810a6200033e565b62000323838362000230565b80600019048211156200033a576200033a62000344565b0290505b92915050565b634e487b7160e01b600052601160045260246000fd5b6001600160a01b03811681146200037057600080fd5b50565b6136d680620003836000396000f3fe6080604052600436106102725760003560e01c80637c3a00fd1161014f578063c215ac21116100c1578063e260d7471161007a578063e260d747146107fb578063e5bad72314610811578063edf3daec14610831578063f2fde38b14610851578063fbfa77cf14610871578063fecb63571461089157600080fd5b8063c215ac2114610718578063c37077091461075b578063c57610ae1461077b578063d88c69101461079b578063d8aed145146107bb578063e2233cbd146107db57600080fd5b80639d38d064116101135780639d38d0641461064e5780639e3aa5b114610664578063a226b48314610684578063b13de266146106a4578063b2016bd4146106c4578063b3b840df146106e457600080fd5b80637c3a00fd1461055f57806389097a6a1461057557806389a30271146105f05780638da5cb5b1461061057806391c2c4691461062e57600080fd5b80634de33fda116101e857806362965d8e116101ac57806362965d8e146104ae57806363ce2008146104c457806366234ffa146104e4578063715018a6146104fa578063798816981461050f5780637a3c4c171461053f57600080fd5b80634de33fda1461040e578063587a03c21461042e5780635f84f3021461044e5780636198e3391461046e57806361ef161f1461048e57600080fd5b806324a6665e1161023a57806324a6665e1461035a578063415f12401461038f57806341f6cf4e146103a25780634437152a146103b8578063484f1371146103d85780634ddde78d146103f857600080fd5b80630ecbcdab1461027757806316f0115b146102995780631753b408146102d65780631a42621614610311578063200549ca14610324575b600080fd5b34801561028357600080fd5b506102976102923660046133c4565b6108b1565b005b3480156102a557600080fd5b506009546102b9906001600160a01b031681565b6040516001600160a01b0390911681526020015b60405180910390f35b3480156102e257600080fd5b506103036102f1366004613222565b60126020526000908152604090205481565b6040519081526020016102cd565b61029761031f36600461337b565b610d8d565b34801561033057600080fd5b506102b961033f36600461337b565b600b602052600090815260409020546001600160a01b031681565b34801561036657600080fd5b5061037a61037536600461337b565b610eb0565b604080519283526020830191909152016102cd565b61029761039d36600461337b565b610f96565b3480156103ae57600080fd5b50610303600f5481565b3480156103c457600080fd5b506102976103d3366004613222565b6110b6565b3480156103e457600080fd5b506103036103f336600461337b565b6110e0565b34801561040457600080fd5b5061030360085481565b34801561041a57600080fd5b5061030361042936600461337b565b611149565b34801561043a57600080fd5b5061029761044936600461337b565b6111af565b34801561045a57600080fd5b5061029761046936600461337b565b6111bc565b34801561047a57600080fd5b5061029761048936600461337b565b6111c9565b34801561049a57600080fd5b50600e546102b9906001600160a01b031681565b3480156104ba57600080fd5b5061030360015481565b3480156104d057600080fd5b506102976104df366004613394565b6112be565b3480156104f057600080fd5b5061030360065481565b34801561050657600080fd5b506102976112e0565b34801561051b57600080fd5b5061052f61052a36600461337b565b6112f4565b60405190151581526020016102cd565b34801561054b57600080fd5b5061030361055a36600461337b565b611338565b34801561056b57600080fd5b5061030360055481565b34801561058157600080fd5b506105c461059036600461337b565b60106020526000908152604090208054600182015460028301546003909301546001600160a01b0390921692909160ff1684565b604080516001600160a01b039095168552602085019390935291830152151560608201526080016102cd565b3480156105fc57600080fd5b506004546102b9906001600160a01b031681565b34801561061c57600080fd5b506000546001600160a01b03166102b9565b34801561063a57600080fd5b50600c546102b9906001600160a01b031681565b34801561065a57600080fd5b5061030360025481565b34801561067057600080fd5b5061030361067f36600461337b565b61148b565b34801561069057600080fd5b5061052f61069f36600461337b565b6114b6565b3480156106b057600080fd5b506102976106bf36600461337b565b611533565b3480156106d057600080fd5b506003546102b9906001600160a01b031681565b3480156106f057600080fd5b5061037a6106ff36600461337b565b600a602052600090815260409020805460019091015482565b34801561072457600080fd5b5061030361073336600461337b565b6000908152601060209081526040808320546001600160a01b03168352601290915290205490565b34801561076757600080fd5b5061029761077636600461337b565b611582565b34801561078757600080fd5b5061030361079636600461337b565b61158f565b3480156107a757600080fd5b506103036107b636600461337b565b6115ea565b3480156107c757600080fd5b506102976107d63660046133c4565b6116da565b3480156107e757600080fd5b506102976107f636600461337b565b6119d3565b34801561080757600080fd5b5061030360075481565b34801561081d57600080fd5b5061030361082c36600461337b565b611b83565b34801561083d57600080fd5b5061029761084c3660046132c0565b611c3a565b34801561085d57600080fd5b5061029761086c366004613222565b612506565b34801561087d57600080fd5b50600d546102b9906001600160a01b031681565b34801561089d57600080fd5b5061052f6108ac36600461337b565b61257c565b600960009054906101000a90046001600160a01b03166001600160a01b031663ae3050e16040518163ffffffff1660e01b815260040160206040518083038186803b1580156108ff57600080fd5b505afa158015610913573d6000803e3d6000fd5b505050506040513d601f19601f82011682018060405250810190610937919061325c565b6109785760405162461bcd60e51b815260206004820152600d60248201526c1c185d5cd95119511953195b99609a1b60448201526064015b60405180910390fd5b6000828152600a60205260408120906109908461148b565b90506000600960009054906101000a90046001600160a01b03166001600160a01b03166312b583496040518163ffffffff1660e01b815260040160206040518083038186803b1580156109e257600080fd5b505afa1580156109f6573d6000803e3d6000fd5b505050506040513d601f19601f82011682018060405250810190610a1a91906132a7565b9050600754841015610a6e5760405162461bcd60e51b815260206004820152601a60248201527f616d6f756e74206c657373206d696e426f72726f774c696d6974000000000000604482015260640161096f565b82548290610a7c90866135a2565b1115610abe5760405162461bcd60e51b8152602060048201526011602482015270626f72726f7720697320746f6f2062696760781b604482015260640161096f565b6000858152600b60205260409020546001600160a01b03163314610b1c5760405162461bcd60e51b81526020600482015260156024820152743cb7ba9030b932903737ba103a34329037bbb732b960591b604482015260640161096f565b80841115610b7a5760405162461bcd60e51b815260206004820152602560248201527f7468657265206973206e6f7420656e6f756768206d6f6e657920696e20746865604482015264081c1bdbdb60da1b606482015260840161096f565b610b838561259e565b610b8c856114b6565b15610bec57610b9a85611149565b610ba386611338565b11610be75760405162461bcd60e51b815260206004820152601460248201527374686520707269636520697320746f6f206c6f7760601b604482015260640161096f565b610c43565b610bf585611149565b610bfe86611338565b10610c435760405162461bcd60e51b81526020600482015260156024820152740e8d0ca40e0e4d2c6ca40d2e640e8dede40d0d2ced605b1b604482015260640161096f565b6000610c4e866110e0565b9050604051806040016040528082866000015488610c6c91906135a2565b610c7691906135a2565b8152426020918201526000888152600a825260409020825181559101516001909101556009546001600160a01b0316632bc355ca610cb483886135a2565b6040518263ffffffff1660e01b8152600401610cd291815260200190565b600060405180830381600087803b158015610cec57600080fd5b505af1158015610d00573d6000803e3d6000fd5b50506009546000898152600b602052604090819020549051633419e74d60e21b81526001600160a01b039182166004820152602481018a90529116925063d0679d349150604401600060405180830381600087803b158015610d6157600080fd5b505af1158015610d75573d6000803e3d6000fd5b50505050610d853387874261265a565b505050505050565b610d968161257c565b610dd25760405162461bcd60e51b815260206004820152600d60248201526c696e76616c696420707269636560981b604482015260640161096f565b600e60009054906101000a90046001600160a01b03166001600160a01b03166363ae21036040518163ffffffff1660e01b815260040160206040518083038186803b158015610e2057600080fd5b505afa158015610e34573d6000803e3d6000fd5b505050506040513d601f19601f82011682018060405250810190610e5891906132a7565b341015610ea25760405162461bcd60e51b81526020600482015260186024820152771b5a5b915e1958dd5d1a5bdb919959481d1bdbc81cdb585b60421b604482015260640161096f565b610ead8160016126bb565b50565b600c5460405163eb02c30160e01b8152600481018390526000918291829182916001600160a01b039091169063eb02c301906024016101006040518083038186803b158015610efe57600080fd5b505afa158015610f12573d6000803e3d6000fd5b505050506040513d601f19601f82011682018060405250810190610f3691906133e6565b50505050509250509150620f42406c0c9f2c9cd04674edea40000000610f5c91906135ba565b610f6690836135ba565b610f816305f5e1006c0c9f2c9cd04674edea400000006135ba565b610f8b90836135ba565b935093505050915091565b610f9f816112f4565b610fdb5760405162461bcd60e51b815260206004820152600d60248201526c696e76616c696420707269636560981b604482015260640161096f565b600e60009054906101000a90046001600160a01b03166001600160a01b03166363ae21036040518163ffffffff1660e01b815260040160206040518083038186803b15801561102957600080fd5b505afa15801561103d573d6000803e3d6000fd5b505050506040513d601f19601f8201168201806040525081019061106191906132a7565b3410156110ab5760405162461bcd60e51b81526020600482015260186024820152771b5a5b915e1958dd5d1a5bdb919959481d1bdbc81cdb585b60421b604482015260640161096f565b610ead8160006126bb565b6110be612945565b600980546001600160a01b0319166001600160a01b0392909216919091179055565b6000818152600a6020526040812060018101548290603c90611102904261363a565b61110c91906135ba565b90506006546005548261111f91906135dc565b835461112d906064906135ba565b61113791906135dc565b61114191906135ba565b949350505050565b60008061115583610eb0565b6000858152601060209081526040808320546001600160a01b0316835260129091529020549092509050611188846114b6565b156111a357606461119982826135a2565b61113790846135dc565b6064611199828261363a565b6111b7612945565b600655565b6111c4612945565b600555565b6000818152600a6020526040902054156112165760405162461bcd60e51b815260206004820152600e60248201526d1b1bd85b881a5cc81b1bd8dad95960921b604482015260640161096f565b6003546000828152600b6020526040908190205490516323b872dd60e01b81526001600160a01b03928316926323b872dd9261125c923092909116908690600401613450565b600060405180830381600087803b15801561127657600080fd5b505af115801561128a573d6000803e3d6000fd5b50506040518392503391507f6381d9813cabeb57471b5a7e05078e64845ccdb563146a6911d536f24ce960f190600090a350565b6112c6612945565b6001600160a01b0316600090815260126020526040902055565b6112e8612945565b6112f2600061299f565b565b60006112ff826114b6565b1561131e5761130d826115ea565b61131683611338565b111592915050565b611327826115ea565b61133083611338565b101592915050565b6000818152601060209081526040808320815160808101835281546001600160a01b031681526001820154938101939093526002810154918301919091526003015460ff161515606082015261138d836114b6565b1561143d576113ad6305f5e1006c0c9f2c9cd04674edea400000006135ba565b600d548251604051637092736960e11b81526001600160a01b03918216600482015291169063e124e6d2906024015b60206040518083038186803b1580156113f457600080fd5b505afa158015611408573d6000803e3d6000fd5b505050506040513d601f19601f8201168201806040525081019061142c91906132a7565b61143691906135ba565b9392505050565b6114586305f5e1006c0c9f2c9cd04674edea400000006135ba565b600d5482516040516340d3096b60e11b81526001600160a01b0391821660048201529116906381a612d6906024016113dc565b600060015460025461149c84611b83565b6114a691906135ba565b6114b091906135dc565b92915050565b600c5460405163a226b48360e01b8152600481018390526000916001600160a01b03169063a226b4839060240160206040518083038186803b1580156114fb57600080fd5b505afa15801561150f573d6000803e3d6000fd5b505050506040513d601f19601f820116820180604052508101906114b0919061325c565b61153b612945565b611f4081111561157d5760405162461bcd60e51b815260206004820152600d60248201526c696e76616c69642076616c756560981b604482015260640161096f565b600155565b61158a612945565b600755565b600061159a826114b6565b156115c9576115a8826115ea565b6115b183611149565b11156115c0576114b082611149565b6114b0826115ea565b6115d2826115ea565b6115db83611149565b10156115c0576114b082611149565b6000818152600a60205260408120818061160385610eb0565b91509150611610856114b6565b1561167c57606481611626846305f5e1006135dc565b61163091906135ba565b845461163f90620f42406135dc565b61164991906135ba565b6116549060786135dc565b61165e91906135ba565b6116699060646135dc565b61167390826135a2565b95945050505050565b60648161168d846305f5e1006135dc565b61169791906135ba565b84546116a690620f42406135dc565b6116b091906135ba565b6116bb9060786135dc565b6116c591906135ba565b6116d09060646135dc565b611673908261363a565b6000828152600a60205260409020546117275760405162461bcd60e51b815260206004820152600f60248201526e1bdc1d1a5bdb881c995919595b5959608a1b604482015260640161096f565b6000611732836110e0565b6000848152600a602052604090205490915061174f9082906135a2565b8211156117925760405162461bcd60e51b8152602060048201526011602482015270616d6f756e7420697320746f6f2062696760781b604482015260640161096f565b6000838152600b60205260409020546001600160a01b031633146117b557600080fd5b6000838152600a602052604081205483906117d19084906135a2565b6117db919061363a565b6009549091506001600160a01b0316631b45a68d6117f9848661363a565b6040518263ffffffff1660e01b815260040161181791815260200190565b600060405180830381600087803b15801561183157600080fd5b505af1158015611845573d6000803e3d6000fd5b505060408051808201825284815242602080830191825260008a8152600a825284812093518455915160019093019290925560048054600b909352908390205492516323b872dd60e01b81526001600160a01b0392831695506323b872dd94506118b793909216913091899101613450565b602060405180830381600087803b1580156118d157600080fd5b505af11580156118e5573d6000803e3d6000fd5b505050506040513d601f19601f82011682018060405250810190611909919061325c565b506004805460095460405163a9059cbb60e01b81526001600160a01b039182169381019390935260248301869052169063a9059cbb90604401602060405180830381600087803b15801561195c57600080fd5b505af1158015611970573d6000803e3d6000fd5b505050506040513d601f19601f82011682018060405250810190611994919061325c565b50604051838152849033907f77c6871227e5d2dec8dadd5354f78453203e22e669cd0ec4c19d9a8c5edb31d0906020015b60405180910390a350505050565b600960009054906101000a90046001600160a01b03166001600160a01b031663ae3050e16040518163ffffffff1660e01b815260040160206040518083038186803b158015611a2157600080fd5b505afa158015611a35573d6000803e3d6000fd5b505050506040513d601f19601f82011682018060405250810190611a59919061325c565b611a955760405162461bcd60e51b815260206004820152600d60248201526c1c185d5cd95119511953195b99609a1b604482015260640161096f565b6003546040516331a9108f60e11b81526004810183905233916001600160a01b031690636352211e9060240160206040518083038186803b158015611ad957600080fd5b505afa158015611aed573d6000803e3d6000fd5b505050506040513d601f19601f82011682018060405250810190611b11919061323f565b6001600160a01b031614611b575760405162461bcd60e51b815260206004820152600d60248201526c3cb7ba903737ba1037bbb732b960991b604482015260640161096f565b6000818152600b6020526040902080546001600160a01b03191633908117909155610ead9082906129ef565b600c546040516332d53b1760e01b815260048101839052600091829182916001600160a01b0316906332d53b1790602401604080518083038186803b158015611bcb57600080fd5b505afa158015611bdf573d6000803e3d6000fd5b505050506040513d601f19601f82011682018060405250810190611c039190613279565b9092509050611c22620f42406c0c9f2c9cd04674edea400000006135ba565b611c2c90826135ba565b905081611436576000611141565b600e546001600160a01b03163314611c945760405162461bcd60e51b815260206004820181905260248201527f6d73672e73656e646572206973206e6f7420706f736974696f6e526f75746572604482015260640161096f565b600083815260116020908152604091829020825160c0810184528154815260018201546001600160a01b039081169382018490526002830154169381019390935260038101546060840152600481015460808401526005015460ff16151560a083015280156124ff5781516000818152600a6020526040808220546060860151600480548489015194516370a0823160e01b81526001600160a01b03958616928101929092529495949293869316906370a082319060240160206040518083038186803b158015611d6457600080fd5b505afa158015611d78573d6000803e3d6000fd5b505050506040513d601f19601f82011682018060405250810190611d9c91906132a7565b611da6919061363a565b6080870151600954604051631b45a68d60e01b81526004810186905292935090916001600160a01b0390911690631b45a68d90602401600060405180830381600087803b158015611df657600080fd5b505af1158015611e0a573d6000803e3d6000fd5b505060408051808201825260008082524260208084019182528a8352600a9052929020905181559051600190910155505060a0870151156120dd57600480546040808a015160095491516323b872dd60e01b81526001600160a01b03938416946323b872dd94611e7e941691899101613450565b602060405180830381600087803b158015611e9857600080fd5b505af1158015611eac573d6000803e3d6000fd5b505050506040513d601f19601f82011682018060405250810190611ed0919061325c565b506004546040808901516000878152600b60205291909120546001600160a01b03928316926323b872dd9291166064611f0a88600a6135dc565b611f1491906135ba565b611f1e90886135a2565b611f28908761363a565b6040518463ffffffff1660e01b8152600401611f4693929190613450565b602060405180830381600087803b158015611f6057600080fd5b505af1158015611f74573d6000803e3d6000fd5b505050506040513d601f19601f82011682018060405250810190611f98919061325c565b5060045460408801516001600160a01b03909116906323b872dd90886064611fc188600a6135dc565b611fcb91906135ba565b6040518463ffffffff1660e01b8152600401611fe993929190613450565b602060405180830381600087803b15801561200357600080fd5b505af1158015612017573d6000803e3d6000fd5b505050506040513d601f19601f8201168201806040525081019061203b919061325c565b506000848152600b602052604090205484906001600160a01b03167fad7bde0b40220dccef6b876cf7594499d11d9f168fbd034338597c691a7e943d606461208487600a6135dc565b61208e91906135ba565b61209890876135a2565b6120a2908661363a565b8660646120b082600a6135dc565b6120ba91906135ba565b6040805193845260208401929092529082015260600160405180910390a36124f0565b82811115612333576120ef838261363a565b60045460408901516009549297506001600160a01b03918216926323b872dd9216606461211d8a605a6135dc565b61212791906135ba565b61213190886135a2565b6040518463ffffffff1660e01b815260040161214f93929190613450565b602060405180830381600087803b15801561216957600080fd5b505af115801561217d573d6000803e3d6000fd5b505050506040513d601f19601f820116820180604052508101906121a1919061325c565b5060045460408801516001600160a01b03909116906323b872dd908860646121ca8a600a6135dc565b6121d491906135ba565b6040518463ffffffff1660e01b81526004016121f293929190613450565b602060405180830381600087803b15801561220c57600080fd5b505af1158015612220573d6000803e3d6000fd5b505050506040513d601f19601f82011682018060405250810190612244919061325c565b506004546040808901516000878152600b60205291909120546001600160a01b03928316926323b872dd929116606461227e8a600a6135dc565b61228891906135ba565b60646122958b605a6135dc565b61229f91906135ba565b6122a990896135a2565b6122b3908861363a565b6122bd919061363a565b6040518463ffffffff1660e01b81526004016122db93929190613450565b602060405180830381600087803b1580156122f557600080fd5b505af1158015612309573d6000803e3d6000fd5b505050506040513d601f19601f8201168201806040525081019061232d919061325c565b50612467565b600480546040808a015160095491516323b872dd60e01b81526001600160a01b03938416946323b872dd9461236c941691899101613450565b602060405180830381600087803b15801561238657600080fd5b505af115801561239a573d6000803e3d6000fd5b505050506040513d601f19601f820116820180604052508101906123be919061325c565b506004546040808901516000878152600b60205291909120546001600160a01b03928316926323b872dd9291166123f5878761363a565b6040518463ffffffff1660e01b815260040161241393929190613450565b602060405180830381600087803b15801561242d57600080fd5b505af1158015612441573d6000803e3d6000fd5b505050506040513d601f19601f82011682018060405250810190612465919061325c565b505b6000848152600b602052604090205484906001600160a01b03167f4e91025e01b2329df1ec1067d27aafec4d1c41f682ccd794dee04321e0b1e8dc8560646124b08a605a6135dc565b6124ba91906135ba565b60646124c78b600a6135dc565b6124d191906135ba565b6040805193845260208401929092529082015260600160405180910390a35b6124f9846111c9565b50505050505b5050505050565b61250e612945565b6001600160a01b0381166125735760405162461bcd60e51b815260206004820152602660248201527f4f776e61626c653a206e6577206f776e657220697320746865207a65726f206160448201526564647265737360d01b606482015260840161096f565b610ead8161299f565b6000612587826114b6565b156125955761130d82611149565b61132782611149565b600c546040516332d53b1760e01b8152600481018390526000916001600160a01b0316906332d53b1790602401604080518083038186803b1580156125e257600080fd5b505afa1580156125f6573d6000803e3d6000fd5b505050506040513d601f19601f8201168201806040525081019061261a9190613279565b509050806126565760405162461bcd60e51b81526020600482015260096024820152681b9bc81c1c9bd99a5d60ba1b604482015260640161096f565b5050565b6000838152601060209081526040918290205482518581526001600160a01b0391821692810192909252429282019290925284918616907f1fdbee5d1bd2901710e8945918b1a052ce67662661a2ccbf68420e4e430f8dab906060016119c5565b600c5460405163e6e6dd2f60e01b81526004810184905260009182916001600160a01b039091169063e6e6dd2f9060240160a060405180830381600087803b15801561270657600080fd5b505af115801561271a573d6000803e3d6000fd5b505050506040513d601f19601f8201168201806040525081019061273e9190613302565b50506000878152601060209081526040808320815160808101835281546001600160a01b031681526001820154938101939093526002810154918301919091526003015460ff16151560608201529295509093509091508061279f87612c6d565b915091506000806127af89612e17565b91509150866001600160a01b0316636f7e8799343085896000015186898c606001518c6000600e60009054906101000a90046001600160a01b03166001600160a01b03166363ae21036040518163ffffffff1660e01b815260040160206040518083038186803b15801561282257600080fd5b505afa158015612836573d6000803e3d6000fd5b505050506040513d601f19601f8201168201806040525081019061285a91906132a7565b6000306040518d63ffffffff1660e01b81526004016128839b9a99989796959493929190613474565b6000604051808303818588803b15801561289c57600080fd5b505af11580156128b0573d6000803e3d6000fd5b5050600480546040516370a0823160e01b81526001600160a01b038d81169382019390935260009550911692506370a08231915060240160206040518083038186803b1580156128ff57600080fd5b505afa158015612913573d6000803e3d6000fd5b505050506040513d601f19601f8201168201806040525081019061293791906132a7565b90506124f9888b8b84613062565b6000546001600160a01b031633146112f25760405162461bcd60e51b815260206004820181905260248201527f4f776e61626c653a2063616c6c6572206973206e6f7420746865206f776e6572604482015260640161096f565b600080546001600160a01b038381166001600160a01b0319831681178455604051919092169283917f8be0079c531659141344cd1fd0a4f28419497f9722a3daafe3b4186f6b6457e09190a35050565b600c5460405163e6e6dd2f60e01b81526004810184905260009182916001600160a01b039091169063e6e6dd2f9060240160a060405180830381600087803b158015612a3a57600080fd5b505af1158015612a4e573d6000803e3d6000fd5b505050506040513d601f19601f82011682018060405250810190612a729190613302565b5050600c54604051630b7d321160e41b81529395509093506000926001600160a01b03909116915063b7d3211090612aae908690600401613539565b602060405180830381600087803b158015612ac857600080fd5b505af1158015612adc573d6000803e3d6000fd5b505050506040513d601f19601f82011682018060405250810190612b00919061323f565b600c5460405163eb02c30160e01b81526004810188905291925060009182916001600160a01b03169063eb02c301906024016101006040518083038186803b158015612b4b57600080fd5b505afa158015612b5f573d6000803e3d6000fd5b505050506040513d601f19601f82011682018060405250810190612b8391906133e6565b50506003546040516323b872dd60e01b8152969850939650506001600160a01b03909216936323b872dd9350612bc3925033915030908c90600401613450565b600060405180830381600087803b158015612bdd57600080fd5b505af1158015612bf1573d6000803e3d6000fd5b5050604080516080810182526001600160a01b03968716815260208082019687528183019586529715156060820190815260009b8c5260109098529920985189546001600160a01b0319169516949094178855509051600187015551600286015550516003909301805460ff1916931515939093179092555050565b600c5460405163eb02c30160e01b81526004810183905260009182916001600160a01b039091169063eb02c301906024016101006040518083038186803b158015612cb757600080fd5b505afa158015612ccb573d6000803e3d6000fd5b505050506040513d601f19601f82011682018060405250810190612cef91906133e6565b5095965050508415159350612d42925050505760405162461bcd60e51b81526020600482015260156024820152741c1bdcda5d1a5bdb881cda5e99481a5cc81b9d5b1b605a1b604482015260640161096f565b60008381526010602052604090206003015460ff16612d6f57600f54612d6a906103e8613561565b612d7e565b600f54612d7e906103e86135fb565b600c54604051637a3c4c1760e01b8152600481018690526103e8916001600160a01b031690637a3c4c179060240160206040518083038186803b158015612dc457600080fd5b505afa158015612dd8573d6000803e3d6000fd5b505050506040513d601f19601f82011682018060405250810190612dfc91906132a7565b612e0691906135ba565b612e1091906135dc565b9150915091565b600c5460405163eb02c30160e01b81526004810183905260609160009182916001600160a01b03169063eb02c301906024016101006040518083038186803b158015612e6257600080fd5b505afa158015612e76573d6000803e3d6000fd5b505050506040513d601f19601f82011682018060405250810190612e9a91906133e6565b5050600c546040516332d53b1760e01b8152600481018c90529597506000965086956001600160a01b0390911694506332d53b1793506024019150612edc9050565b604080518083038186803b158015612ef357600080fd5b505afa158015612f07573d6000803e3d6000fd5b505050506040513d601f19601f82011682018060405250810190612f2b9190613279565b9150915081612f3a5780612f3c565b825b60008781526010602052604090206003015490945060ff1615612ff957604080516002808252606082018352909160208301908036833750505060008781526010602052604081205482519297506001600160a01b031691879190612fa357612fa3613667565b6001600160a01b039283166020918202929092010152600454865191169086906001908110612fd457612fd4613667565b60200260200101906001600160a01b031690816001600160a01b03168152505061305a565b6040805160018082528183019092529060208083019080368337505060045482519297506001600160a01b03169187915060009061303957613039613667565b60200260200101906001600160a01b031690816001600160a01b0316815250505b505050915091565b600e5460405163fa44457760e01b81526001600160a01b038681166004830152600092169063fa44457790602401602060405180830381600087803b1580156130aa57600080fd5b505af11580156130be573d6000803e3d6000fd5b505050506040513d601f19601f820116820180604052508101906130e291906132a7565b600e5460405163317c51ff60e11b81526001600160a01b03888116600483015260248201849052929350600092909116906362f8a3fe9060440160206040518083038186803b15801561313457600080fd5b505afa158015613148573d6000803e3d6000fd5b505050506040513d601f19601f8201168201806040525081019061316c91906132a7565b9050600061317986611b83565b6040805160c081018252978852336020808a019182526001600160a01b039a8b168a840190815260608b0198895260808b0194855298151560a08b019081526000968752601190915291909420975188559251600188018054918a166001600160a01b0319928316179055955160028801805491909916961695909517909655915160038501555090516004830155516005909101805491151560ff1990921691909117905550565b60006020828403121561323457600080fd5b81356114368161367d565b60006020828403121561325157600080fd5b81516114368161367d565b60006020828403121561326e57600080fd5b815161143681613692565b6000806040838503121561328c57600080fd5b825161329781613692565b6020939093015192949293505050565b6000602082840312156132b957600080fd5b5051919050565b6000806000606084860312156132d557600080fd5b8335925060208401356132e781613692565b915060408401356132f781613692565b809150509250925092565b600080600080600060a0868803121561331a57600080fd5b85516002811061332957600080fd5b602087015190955061333a8161367d565b604087015190945061334b81613692565b606087015190935061335c8161367d565b608087015190925061336d8161367d565b809150509295509295909350565b60006020828403121561338d57600080fd5b5035919050565b600080604083850312156133a757600080fd5b8235915060208301356133b98161367d565b809150509250929050565b600080604083850312156133d757600080fd5b50508035926020909101359150565b600080600080600080600080610100898b03121561340357600080fd5b885197506020890151965060408901519550606089015194506080890151935060a0890151925060c089015161343881613692565b8092505060e089015190509295985092959890939650565b6001600160a01b039384168152919092166020820152604081019190915260600190565b6001600160a01b038c8116825261016060208084018290528d51918401829052600092916101808501918f01845b828110156134c257815185168452602093840193909101906001016134a2565b5050506001600160a01b038d16604085015291506134dd9050565b8960608301528860808301526134f760a083018915159052565b8660c08301528560e08301528461010083015261351961012083018515159052565b6001600160a01b0383166101408301529c9b505050505050505050505050565b602081016002831061355b57634e487b7160e01b600052602160045260246000fd5b91905290565b600080821280156001600160ff1b038490038513161561358357613583613651565b600160ff1b839003841281161561359c5761359c613651565b50500190565b600082198211156135b5576135b5613651565b500190565b6000826135d757634e487b7160e01b600052601260045260246000fd5b500490565b60008160001904831182151516156135f6576135f6613651565b500290565b60008083128015600160ff1b85018412161561361957613619613651565b6001600160ff1b038401831381161561363457613634613651565b50500390565b60008282101561364c5761364c613651565b500390565b634e487b7160e01b600052601160045260246000fd5b634e487b7160e01b600052603260045260246000fd5b6001600160a01b0381168114610ead57600080fd5b8015158114610ead57600080fdfea2646970667358221220733c8f4ba24f98337a02b7c5618aff7b7f9bed0f1f017951ca824c52d65d170d64736f6c63430008060033",
  "devdoc": {
    "kind": "dev",
    "methods": {
      "borrow(uint256,uint256)": {
        "params": {
          "amount": "borrow size (USDC)*",
          "id": "collateral ID"
        }
      },
      "calculateUpcomingFee(uint256)": {
        "params": {
          "id": "collateral ID*"
        }
      },
      "collateralInfo(uint256)": {
        "params": {
          "id": "collateral id*"
        }
      },
      "intrinsicValueOf(uint256)": {
        "params": {
          "id": "collateral ID*"
        }
      },
      "liquidate(uint256)": {
        "params": {
          "id": "position ID*"
        }
      },
      "liquidateByBorderPrice(uint256)": {
        "params": {
          "id": "collateral ID*"
        }
      },
      "lockCollateral(uint256)": {
        "params": {
          "id": "collateral ID*"
        }
      },
      "maxBorrowLimit(uint256)": {
        "params": {
          "id": "collateral ID*"
        }
      },
      "owner()": {
        "details": "Returns the address of the current owner."
      },
      "renounceOwnership()": {
        "details": "Leaves the contract without owner. It will not be possible to call `onlyOwner` functions anymore. Can only be called by the current owner. NOTE: Renouncing ownership will leave the contract without an owner, thereby removing any functionality that is only available to the owner."
      },
      "repay(uint256,uint256)": {
        "params": {
          "amount": "amount to repay (USDC)*",
          "id": "collateral ID"
        }
      },
      "setInterestRate(uint256)": {
        "params": {
          "value": "interest rate (in minutes)*"
        }
      },
      "setLTV(uint256)": {
        "params": {
          "value": "LTV coefficient.*"
        }
      },
      "setMinBorrowLimit(uint256)": {
        "params": {
          "value": "min. borrow size (USDC)*"
        }
      },
      "setPool(address)": {
        "params": {
          "value": "the address of the liquidity pool*"
        }
      },
      "transferOwnership(address)": {
        "details": "Transfers ownership of the contract to a new account (`newOwner`). Can only be called by the current owner."
      },
      "unlock(uint256)": {
        "params": {
          "id": "collateral ID*"
        }
      }
    },
    "version": 1
  },
  "userdoc": {
    "kind": "user",
    "methods": {
      "borrow(uint256,uint256)": {
        "notice": "send USDC to the user"
      },
      "calculateUpcomingFee(uint256)": {
        "notice": "used to calculate how much USDC user should pay as interest fee"
      },
      "collateralInfo(uint256)": {
        "notice": "returns the position size and the entry price by collateral ID"
      },
      "intrinsicValueOf(uint256)": {
        "notice": "calculates the intrinsic value of the collateral"
      },
      "liquidate(uint256)": {
        "notice": "used to liquidate the loan"
      },
      "liquidateByBorderPrice(uint256)": {
        "notice": "used to liquidate the loan by border price"
      },
      "lockCollateral(uint256)": {
        "notice": "used to lock the collateral (ERC-721) in DeDeLend"
      },
      "maxBorrowLimit(uint256)": {
        "notice": "calcualtes the maximum borrow size for the specific collateral"
      },
      "repay(uint256,uint256)": {
        "notice": "used to repay the user's debt"
      },
      "setInterestRate(uint256)": {
        "notice": "used to set new interest rate"
      },
      "setLTV(uint256)": {
        "notice": "used to set LTV coefficient"
      },
      "setMinBorrowLimit(uint256)": {
        "notice": "used to set the minimum borrow size"
      },
      "setPool(address)": {
        "notice": "used to connect a new liqidity pool"
      },
      "unlock(uint256)": {
        "notice": "sends the collateral token back to the user"
      }
    },
    "version": 1
  },
  "storageLayout": {
    "storage": [
      {
        "astId": 7,
        "contract": "contracts/DDL_GMX.sol:DDL_GMX",
        "label": "_owner",
        "offset": 0,
        "slot": "0",
        "type": "t_address"
      },
      {
        "astId": 3667,
        "contract": "contracts/DDL_GMX.sol:DDL_GMX",
        "label": "LTV",
        "offset": 0,
        "slot": "1",
        "type": "t_uint256"
      },
      {
        "astId": 3672,
        "contract": "contracts/DDL_GMX.sol:DDL_GMX",
        "label": "LTV_DECIMALS",
        "offset": 0,
        "slot": "2",
        "type": "t_uint256"
      },
      {
        "astId": 3675,
        "contract": "contracts/DDL_GMX.sol:DDL_GMX",
        "label": "collateralToken",
        "offset": 0,
        "slot": "3",
        "type": "t_contract(IERC721)2180"
      },
      {
        "astId": 3678,
        "contract": "contracts/DDL_GMX.sol:DDL_GMX",
        "label": "USDC",
        "offset": 0,
        "slot": "4",
        "type": "t_contract(IERC20)777"
      },
      {
        "astId": 3681,
        "contract": "contracts/DDL_GMX.sol:DDL_GMX",
        "label": "interestRate",
        "offset": 0,
        "slot": "5",
        "type": "t_uint256"
      },
      {
        "astId": 3686,
        "contract": "contracts/DDL_GMX.sol:DDL_GMX",
        "label": "INTEREST_RATE_DECIMALS",
        "offset": 0,
        "slot": "6",
        "type": "t_uint256"
      },
      {
        "astId": 3688,
        "contract": "contracts/DDL_GMX.sol:DDL_GMX",
        "label": "minBorrowLimit",
        "offset": 0,
        "slot": "7",
        "type": "t_uint256"
      },
      {
        "astId": 3690,
        "contract": "contracts/DDL_GMX.sol:DDL_GMX",
        "label": "COLLATERAL_DECIMALS",
        "offset": 0,
        "slot": "8",
        "type": "t_uint256"
      },
      {
        "astId": 3693,
        "contract": "contracts/DDL_GMX.sol:DDL_GMX",
        "label": "pool",
        "offset": 0,
        "slot": "9",
        "type": "t_contract(IPoolDDL)6382"
      },
      {
        "astId": 3703,
        "contract": "contracts/DDL_GMX.sol:DDL_GMX",
        "label": "borrowedByCollateral",
        "offset": 0,
        "slot": "10",
        "type": "t_mapping(t_uint256,t_struct(BorrowedByCollateral)3698_storage)"
      },
      {
        "astId": 3707,
        "contract": "contracts/DDL_GMX.sol:DDL_GMX",
        "label": "collateralOwner",
        "offset": 0,
        "slot": "11",
        "type": "t_mapping(t_uint256,t_address)"
      },
      {
        "astId": 4570,
        "contract": "contracts/DDL_GMX.sol:DDL_GMX",
        "label": "accountManager",
        "offset": 0,
        "slot": "12",
        "type": "t_contract(IAccountManager)6176"
      },
      {
        "astId": 4573,
        "contract": "contracts/DDL_GMX.sol:DDL_GMX",
        "label": "vault",
        "offset": 0,
        "slot": "13",
        "type": "t_contract(IVault)7319"
      },
      {
        "astId": 4576,
        "contract": "contracts/DDL_GMX.sol:DDL_GMX",
        "label": "positionRouter",
        "offset": 0,
        "slot": "14",
        "type": "t_contract(IPositionRouter)6530"
      },
      {
        "astId": 4579,
        "contract": "contracts/DDL_GMX.sol:DDL_GMX",
        "label": "closeSlippage",
        "offset": 0,
        "slot": "15",
        "type": "t_int256"
      },
      {
        "astId": 4609,
        "contract": "contracts/DDL_GMX.sol:DDL_GMX",
        "label": "positionInfo",
        "offset": 0,
        "slot": "16",
        "type": "t_mapping(t_uint256,t_struct(PositionInfo)4591_storage)"
      },
      {
        "astId": 4614,
        "contract": "contracts/DDL_GMX.sol:DDL_GMX",
        "label": "liquidatePositionInfo",
        "offset": 0,
        "slot": "17",
        "type": "t_mapping(t_bytes32,t_struct(LiquidatePositionInfo)4604_storage)"
      },
      {
        "astId": 4618,
        "contract": "contracts/DDL_GMX.sol:DDL_GMX",
        "label": "borderPriceCoef",
        "offset": 0,
        "slot": "18",
        "type": "t_mapping(t_address,t_uint256)"
      }
    ],
    "types": {
      "t_address": {
        "encoding": "inplace",
        "label": "address",
        "numberOfBytes": "20"
      },
      "t_bool": {
        "encoding": "inplace",
        "label": "bool",
        "numberOfBytes": "1"
      },
      "t_bytes32": {
        "encoding": "inplace",
        "label": "bytes32",
        "numberOfBytes": "32"
      },
      "t_contract(IAccountManager)6176": {
        "encoding": "inplace",
        "label": "contract IAccountManager",
        "numberOfBytes": "20"
      },
      "t_contract(IERC20)777": {
        "encoding": "inplace",
        "label": "contract IERC20",
        "numberOfBytes": "20"
      },
      "t_contract(IERC721)2180": {
        "encoding": "inplace",
        "label": "contract IERC721",
        "numberOfBytes": "20"
      },
      "t_contract(IPoolDDL)6382": {
        "encoding": "inplace",
        "label": "contract IPoolDDL",
        "numberOfBytes": "20"
      },
      "t_contract(IPositionRouter)6530": {
        "encoding": "inplace",
        "label": "contract IPositionRouter",
        "numberOfBytes": "20"
      },
      "t_contract(IVault)7319": {
        "encoding": "inplace",
        "label": "contract IVault",
        "numberOfBytes": "20"
      },
      "t_int256": {
        "encoding": "inplace",
        "label": "int256",
        "numberOfBytes": "32"
      },
      "t_mapping(t_address,t_uint256)": {
        "encoding": "mapping",
        "key": "t_address",
        "label": "mapping(address => uint256)",
        "numberOfBytes": "32",
        "value": "t_uint256"
      },
      "t_mapping(t_bytes32,t_struct(LiquidatePositionInfo)4604_storage)": {
        "encoding": "mapping",
        "key": "t_bytes32",
        "label": "mapping(bytes32 => struct DDL_GMX.LiquidatePositionInfo)",
        "numberOfBytes": "32",
        "value": "t_struct(LiquidatePositionInfo)4604_storage"
      },
      "t_mapping(t_uint256,t_address)": {
        "encoding": "mapping",
        "key": "t_uint256",
        "label": "mapping(uint256 => address)",
        "numberOfBytes": "32",
        "value": "t_address"
      },
      "t_mapping(t_uint256,t_struct(BorrowedByCollateral)3698_storage)": {
        "encoding": "mapping",
        "key": "t_uint256",
        "label": "mapping(uint256 => struct DDL.BorrowedByCollateral)",
        "numberOfBytes": "32",
        "value": "t_struct(BorrowedByCollateral)3698_storage"
      },
      "t_mapping(t_uint256,t_struct(PositionInfo)4591_storage)": {
        "encoding": "mapping",
        "key": "t_uint256",
        "label": "mapping(uint256 => struct DDL_GMX.PositionInfo)",
        "numberOfBytes": "32",
        "value": "t_struct(PositionInfo)4591_storage"
      },
      "t_struct(BorrowedByCollateral)3698_storage": {
        "encoding": "inplace",
        "label": "struct DDL.BorrowedByCollateral",
        "members": [
          {
            "astId": 3695,
            "contract": "contracts/DDL_GMX.sol:DDL_GMX",
            "label": "borrowed",
            "offset": 0,
            "slot": "0",
            "type": "t_uint256"
          },
          {
            "astId": 3697,
            "contract": "contracts/DDL_GMX.sol:DDL_GMX",
            "label": "newBorrowTimestamp",
            "offset": 0,
            "slot": "1",
            "type": "t_uint256"
          }
        ],
        "numberOfBytes": "64"
      },
      "t_struct(LiquidatePositionInfo)4604_storage": {
        "encoding": "inplace",
        "label": "struct DDL_GMX.LiquidatePositionInfo",
        "members": [
          {
            "astId": 4593,
            "contract": "contracts/DDL_GMX.sol:DDL_GMX",
            "label": "id",
            "offset": 0,
            "slot": "0",
            "type": "t_uint256"
          },
          {
            "astId": 4595,
            "contract": "contracts/DDL_GMX.sol:DDL_GMX",
            "label": "liquidator",
            "offset": 0,
            "slot": "1",
            "type": "t_address"
          },
          {
            "astId": 4597,
            "contract": "contracts/DDL_GMX.sol:DDL_GMX",
            "label": "doppelganger",
            "offset": 0,
            "slot": "2",
            "type": "t_address"
          },
          {
            "astId": 4599,
            "contract": "contracts/DDL_GMX.sol:DDL_GMX",
            "label": "balanceBefore",
            "offset": 0,
            "slot": "3",
            "type": "t_uint256"
          },
          {
            "astId": 4601,
            "contract": "contracts/DDL_GMX.sol:DDL_GMX",
            "label": "profit",
            "offset": 0,
            "slot": "4",
            "type": "t_uint256"
          },
          {
            "astId": 4603,
            "contract": "contracts/DDL_GMX.sol:DDL_GMX",
            "label": "isBorderPrice",
            "offset": 0,
            "slot": "5",
            "type": "t_bool"
          }
        ],
        "numberOfBytes": "192"
      },
      "t_struct(PositionInfo)4591_storage": {
        "encoding": "inplace",
        "label": "struct DDL_GMX.PositionInfo",
        "members": [
          {
            "astId": 4584,
            "contract": "contracts/DDL_GMX.sol:DDL_GMX",
            "label": "indexToken",
            "offset": 0,
            "slot": "0",
            "type": "t_address"
          },
          {
            "astId": 4586,
            "contract": "contracts/DDL_GMX.sol:DDL_GMX",
            "label": "amount",
            "offset": 0,
            "slot": "1",
            "type": "t_uint256"
          },
          {
            "astId": 4588,
            "contract": "contracts/DDL_GMX.sol:DDL_GMX",
            "label": "openPrice",
            "offset": 0,
            "slot": "2",
            "type": "t_uint256"
          },
          {
            "astId": 4590,
            "contract": "contracts/DDL_GMX.sol:DDL_GMX",
            "label": "isLong",
            "offset": 0,
            "slot": "3",
            "type": "t_bool"
          }
        ],
        "numberOfBytes": "128"
      },
      "t_uint256": {
        "encoding": "inplace",
        "label": "uint256",
        "numberOfBytes": "32"
      }
    }
  }
}