{
  "address": "0x479970F871D4eBa4192c05c5De2553Bd48f8537C",
  "abi": [
    {
      "inputs": [
        {
          "internalType": "contract IERC20",
          "name": "_token",
          "type": "address"
        },
        {
          "internalType": "address",
          "name": "ddlContract",
          "type": "address"
        }
      ],
      "stateMutability": "nonpayable",
      "type": "constructor"
    },
    {
      "anonymous": false,
      "inputs": [
        {
          "indexed": true,
          "internalType": "address",
          "name": "owner",
          "type": "address"
        },
        {
          "indexed": true,
          "internalType": "address",
          "name": "spender",
          "type": "address"
        },
        {
          "indexed": false,
          "internalType": "uint256",
          "name": "value",
          "type": "uint256"
        }
      ],
      "name": "Approval",
      "type": "event"
    },
    {
      "anonymous": false,
      "inputs": [
        {
          "indexed": true,
          "internalType": "address",
          "name": "previousOwner",
          "type": "address"
        },
        {
          "indexed": true,
          "internalType": "address",
          "name": "newOwner",
          "type": "address"
        }
      ],
      "name": "OwnershipTransferred",
      "type": "event"
    },
    {
      "anonymous": false,
      "inputs": [
        {
          "indexed": true,
          "internalType": "address",
          "name": "user",
          "type": "address"
        },
        {
          "indexed": false,
          "internalType": "uint256",
          "name": "amount",
          "type": "uint256"
        }
      ],
      "name": "Provide",
      "type": "event"
    },
    {
      "anonymous": false,
      "inputs": [
        {
          "indexed": true,
          "internalType": "address",
          "name": "from",
          "type": "address"
        },
        {
          "indexed": true,
          "internalType": "address",
          "name": "to",
          "type": "address"
        },
        {
          "indexed": false,
          "internalType": "uint256",
          "name": "value",
          "type": "uint256"
        }
      ],
      "name": "Transfer",
      "type": "event"
    },
    {
      "anonymous": false,
      "inputs": [
        {
          "indexed": true,
          "internalType": "address",
          "name": "user",
          "type": "address"
        },
        {
          "indexed": false,
          "internalType": "uint256",
          "name": "amount",
          "type": "uint256"
        }
      ],
      "name": "Withdraw",
      "type": "event"
    },
    {
      "inputs": [],
      "name": "INITIAL_RATE",
      "outputs": [
        {
          "internalType": "uint256",
          "name": "",
          "type": "uint256"
        }
      ],
      "stateMutability": "view",
      "type": "function"
    },
    {
      "inputs": [
        {
          "internalType": "uint256",
          "name": "value",
          "type": "uint256"
        }
      ],
      "name": "addTotalLocked",
      "outputs": [],
      "stateMutability": "nonpayable",
      "type": "function"
    },
    {
      "inputs": [
        {
          "internalType": "address",
          "name": "owner",
          "type": "address"
        },
        {
          "internalType": "address",
          "name": "spender",
          "type": "address"
        }
      ],
      "name": "allowance",
      "outputs": [
        {
          "internalType": "uint256",
          "name": "",
          "type": "uint256"
        }
      ],
      "stateMutability": "view",
      "type": "function"
    },
    {
      "inputs": [
        {
          "internalType": "address",
          "name": "spender",
          "type": "address"
        },
        {
          "internalType": "uint256",
          "name": "amount",
          "type": "uint256"
        }
      ],
      "name": "approve",
      "outputs": [
        {
          "internalType": "bool",
          "name": "",
          "type": "bool"
        }
      ],
      "stateMutability": "nonpayable",
      "type": "function"
    },
    {
      "inputs": [
        {
          "internalType": "address",
          "name": "account",
          "type": "address"
        }
      ],
      "name": "balanceOf",
      "outputs": [
        {
          "internalType": "uint256",
          "name": "",
          "type": "uint256"
        }
      ],
      "stateMutability": "view",
      "type": "function"
    },
    {
      "inputs": [
        {
          "internalType": "bool",
          "name": "value",
          "type": "bool"
        }
      ],
      "name": "changeOpenDeDeLend",
      "outputs": [],
      "stateMutability": "nonpayable",
      "type": "function"
    },
    {
      "inputs": [
        {
          "internalType": "address",
          "name": "",
          "type": "address"
        }
      ],
      "name": "ddlContracts",
      "outputs": [
        {
          "internalType": "bool",
          "name": "",
          "type": "bool"
        }
      ],
      "stateMutability": "view",
      "type": "function"
    },
    {
      "inputs": [],
      "name": "decimals",
      "outputs": [
        {
          "internalType": "uint8",
          "name": "",
          "type": "uint8"
        }
      ],
      "stateMutability": "view",
      "type": "function"
    },
    {
      "inputs": [
        {
          "internalType": "address",
          "name": "spender",
          "type": "address"
        },
        {
          "internalType": "uint256",
          "name": "subtractedValue",
          "type": "uint256"
        }
      ],
      "name": "decreaseAllowance",
      "outputs": [
        {
          "internalType": "bool",
          "name": "",
          "type": "bool"
        }
      ],
      "stateMutability": "nonpayable",
      "type": "function"
    },
    {
      "inputs": [],
      "name": "getTotalBalance",
      "outputs": [
        {
          "internalType": "uint256",
          "name": "balance",
          "type": "uint256"
        }
      ],
      "stateMutability": "view",
      "type": "function"
    },
    {
      "inputs": [
        {
          "internalType": "address",
          "name": "spender",
          "type": "address"
        },
        {
          "internalType": "uint256",
          "name": "addedValue",
          "type": "uint256"
        }
      ],
      "name": "increaseAllowance",
      "outputs": [
        {
          "internalType": "bool",
          "name": "",
          "type": "bool"
        }
      ],
      "stateMutability": "nonpayable",
      "type": "function"
    },
    {
      "inputs": [],
      "name": "maxDepositAmount",
      "outputs": [
        {
          "internalType": "uint256",
          "name": "",
          "type": "uint256"
        }
      ],
      "stateMutability": "view",
      "type": "function"
    },
    {
      "inputs": [],
      "name": "name",
      "outputs": [
        {
          "internalType": "string",
          "name": "",
          "type": "string"
        }
      ],
      "stateMutability": "view",
      "type": "function"
    },
    {
      "inputs": [],
      "name": "openDeDeLend",
      "outputs": [
        {
          "internalType": "bool",
          "name": "",
          "type": "bool"
        }
      ],
      "stateMutability": "view",
      "type": "function"
    },
    {
      "inputs": [],
      "name": "owner",
      "outputs": [
        {
          "internalType": "address",
          "name": "",
          "type": "address"
        }
      ],
      "stateMutability": "view",
      "type": "function"
    },
    {
      "inputs": [
        {
          "internalType": "uint256",
          "name": "amount",
          "type": "uint256"
        },
        {
          "internalType": "uint256",
          "name": "minShare",
          "type": "uint256"
        }
      ],
      "name": "provideFrom",
      "outputs": [
        {
          "internalType": "uint256",
          "name": "share",
          "type": "uint256"
        }
      ],
      "stateMutability": "nonpayable",
      "type": "function"
    },
    {
      "inputs": [],
      "name": "renounceOwnership",
      "outputs": [],
      "stateMutability": "nonpayable",
      "type": "function"
    },
    {
      "inputs": [
        {
          "internalType": "address",
          "name": "to",
          "type": "address"
        },
        {
          "internalType": "uint256",
          "name": "amount",
          "type": "uint256"
        }
      ],
      "name": "send",
      "outputs": [],
      "stateMutability": "nonpayable",
      "type": "function"
    },
    {
      "inputs": [
        {
          "internalType": "address",
          "name": "value",
          "type": "address"
        }
      ],
      "name": "setDDLContract",
      "outputs": [],
      "stateMutability": "nonpayable",
      "type": "function"
    },
    {
      "inputs": [
        {
          "internalType": "address",
          "name": "account",
          "type": "address"
        }
      ],
      "name": "shareOf",
      "outputs": [
        {
          "internalType": "uint256",
          "name": "share",
          "type": "uint256"
        }
      ],
      "stateMutability": "view",
      "type": "function"
    },
    {
      "inputs": [
        {
          "internalType": "uint256",
          "name": "value",
          "type": "uint256"
        }
      ],
      "name": "subTotalLocked",
      "outputs": [],
      "stateMutability": "nonpayable",
      "type": "function"
    },
    {
      "inputs": [],
      "name": "symbol",
      "outputs": [
        {
          "internalType": "string",
          "name": "",
          "type": "string"
        }
      ],
      "stateMutability": "view",
      "type": "function"
    },
    {
      "inputs": [
        {
          "internalType": "address",
          "name": "",
          "type": "address"
        }
      ],
      "name": "timelock",
      "outputs": [
        {
          "internalType": "uint256",
          "name": "",
          "type": "uint256"
        }
      ],
      "stateMutability": "view",
      "type": "function"
    },
    {
      "inputs": [],
      "name": "token",
      "outputs": [
        {
          "internalType": "contract IERC20",
          "name": "",
          "type": "address"
        }
      ],
      "stateMutability": "view",
      "type": "function"
    },
    {
      "inputs": [],
      "name": "totalLocked",
      "outputs": [
        {
          "internalType": "uint256",
          "name": "",
          "type": "uint256"
        }
      ],
      "stateMutability": "view",
      "type": "function"
    },
    {
      "inputs": [],
      "name": "totalSupply",
      "outputs": [
        {
          "internalType": "uint256",
          "name": "",
          "type": "uint256"
        }
      ],
      "stateMutability": "view",
      "type": "function"
    },
    {
      "inputs": [
        {
          "internalType": "address",
          "name": "to",
          "type": "address"
        },
        {
          "internalType": "uint256",
          "name": "amount",
          "type": "uint256"
        }
      ],
      "name": "transfer",
      "outputs": [
        {
          "internalType": "bool",
          "name": "",
          "type": "bool"
        }
      ],
      "stateMutability": "nonpayable",
      "type": "function"
    },
    {
      "inputs": [
        {
          "internalType": "address",
          "name": "from",
          "type": "address"
        },
        {
          "internalType": "address",
          "name": "to",
          "type": "address"
        },
        {
          "internalType": "uint256",
          "name": "amount",
          "type": "uint256"
        }
      ],
      "name": "transferFrom",
      "outputs": [
        {
          "internalType": "bool",
          "name": "",
          "type": "bool"
        }
      ],
      "stateMutability": "nonpayable",
      "type": "function"
    },
    {
      "inputs": [
        {
          "internalType": "address",
          "name": "newOwner",
          "type": "address"
        }
      ],
      "name": "transferOwnership",
      "outputs": [],
      "stateMutability": "nonpayable",
      "type": "function"
    },
    {
      "inputs": [
        {
          "internalType": "address",
          "name": "contr",
          "type": "address"
        }
      ],
      "name": "unlockFunction",
      "outputs": [],
      "stateMutability": "nonpayable",
      "type": "function"
    },
    {
      "inputs": [
        {
          "internalType": "uint256",
          "name": "amount",
          "type": "uint256"
        }
      ],
      "name": "withdraw",
      "outputs": [],
      "stateMutability": "nonpayable",
      "type": "function"
    }
  ],
  "transactionHash": "0xeb691b2acceef4c07f10af55b393e445e049be62350876d97398b4656d5c1e1d",
  "args": [
    "0xFF970A61A04b1cA14834A43f5dE4533eBDDB5CC8",
    "0x8a11F0f83CC80C4066B550DA1C842CC5b0299cBe"
  ],
  "numDeployments": 1,
  "solcInputHash": "18bec7e60c77d1b5f226ec449abbd461",
  "bytecode": "0x6080604052600019600655600a805460ff191660011790553480156200002457600080fd5b506040516200190338038062001903833981016040819052620000479162000200565b6040518060400160405280600681526020016513140811111360d21b8152506040518060400160405280600381526020016211111360ea1b8152506200009c620000966200010660201b60201c565b6200010a565b8151620000b19060049060208501906200015a565b508051620000c79060059060208401906200015a565b5050600880546001600160a01b0319166001600160a01b0394851617905550166000908152600760205260409020805460ff1916600117905562000295565b3390565b600080546001600160a01b038381166001600160a01b0319831681178455604051919092169283917f8be0079c531659141344cd1fd0a4f28419497f9722a3daafe3b4186f6b6457e09190a35050565b82805462000168906200023f565b90600052602060002090601f0160209004810192826200018c5760008555620001d7565b82601f10620001a757805160ff1916838001178555620001d7565b82800160010185558215620001d7579182015b82811115620001d7578251825591602001919060010190620001ba565b50620001e5929150620001e9565b5090565b5b80821115620001e55760008155600101620001ea565b600080604083850312156200021457600080fd5b825162000221816200027c565b602084015190925062000234816200027c565b809150509250929050565b600181811c908216806200025457607f821691505b602082108114156200027657634e487b7160e01b600052602260045260246000fd5b50919050565b6001600160a01b03811681146200029257600080fd5b50565b61165e80620002a56000396000f3fe608060405234801561001057600080fd5b50600436106101e55760003560e01c806370a082311161010f578063c21cc8ea116100a2578063e3b86a5e11610071578063e3b86a5e1461040d578063f2fde38b14610420578063fa88c40f14610433578063fc0c546a1461044657600080fd5b8063c21cc8ea146103c1578063d0679d34146103d4578063dd62ed3e146103e7578063e30c5603146103fa57600080fd5b806395d89b41116100de57806395d89b4114610386578063a457c2d71461038e578063a9059cbb146103a1578063ae3050e1146103b457600080fd5b806370a0823114610327578063715018a6146103505780638da5cb5b146103585780638ed832711461037d57600080fd5b80632bc355ca11610187578063395093511161015657806339509351146102dc5780634dbac733146102ef57806356891412146102fe5780636b143bb81461030757600080fd5b80632bc355ca146102845780632e1a7d4d14610297578063313ce567146102aa57806332f13d8c146102b957600080fd5b806318160ddd116101c357806318160ddd146102415780631b45a68d1461024957806321e5e2c41461025e57806323b872dd1461027157600080fd5b806306fdde03146101ea578063095ea7b31461020857806312b583491461022b575b600080fd5b6101f2610459565b6040516101ff9190611504565b60405180910390f35b61021b61021636600461144c565b6104eb565b60405190151581526020016101ff565b610233610503565b6040519081526020016101ff565b600354610233565b61025c6102573660046114b0565b610584565b005b61023361026c3660046113bb565b6105ba565b61021b61027f366004611410565b610613565b61025c6102923660046114b0565b610637565b61025c6102a53660046114b0565b610665565b604051601281526020016101ff565b61021b6102c73660046113bb565b60076020526000908152604090205460ff1681565b61021b6102ea36600461144c565b6107d8565b610233670de0b6b3a764000081565b61023360095481565b6102336103153660046113bb565b600b6020526000908152604090205481565b6102336103353660046113bb565b6001600160a01b031660009081526001602052604090205490565b61025c6107fa565b6000546001600160a01b03165b6040516001600160a01b0390911681526020016101ff565b61023360065481565b6101f261080e565b61021b61039c36600461144c565b61081d565b61021b6103af36600461144c565b610898565b600a5461021b9060ff1681565b61025c6103cf3660046113bb565b6108a6565b61025c6103e236600461144c565b6108d7565b6102336103f53660046113dd565b610992565b6102336104083660046114e2565b6109bd565b61025c61041b366004611476565b610c6a565b61025c61042e3660046113bb565b610c85565b61025c6104413660046113bb565b610cfe565b600854610365906001600160a01b031681565b606060048054610468906115c9565b80601f0160208091040260200160405190810160405280929190818152602001828054610494906115c9565b80156104e15780601f106104b6576101008083540402835291602001916104e1565b820191906000526020600020905b8154815290600101906020018083116104c457829003601f168201915b5050505050905090565b6000336104f9818585610dbc565b5060019392505050565b6008546040516370a0823160e01b81523060048201526000916001600160a01b0316906370a082319060240160206040518083038186803b15801561054757600080fd5b505afa15801561055b573d6000803e3d6000fd5b505050506040513d601f19601f8201168201806040525081019061057f91906114c9565b905090565b3360009081526007602052604090205460ff166105a057600080fd5b80600960008282546105b291906115b2565b909155505050565b6000806105c660035490565b111561060a576003546001600160a01b0383166000908152600160205260409020546105f0610503565b6105fa9190611593565b6106049190611571565b92915050565b5060005b919050565b600033610621858285610ee0565b61062c858585610f5a565b506001949350505050565b3360009081526007602052604090205460ff1661065357600080fd5b80600960008282546105b29190611559565b6000600954610672610503565b61067c9190611559565b9050610686610503565b82111561069257600080fd5b60008161069e60035490565b6106a89085611593565b6106b29190611571565b3360009081526001602052604090205490915081111561070f5760405162461bcd60e51b8152602060048201526013602482015272416d6f756e7420697320746f6f206c6172676560681b60448201526064015b60405180910390fd5b6107193382611105565b60085460405163a9059cbb60e01b8152336004820152602481018590526001600160a01b039091169063a9059cbb90604401602060405180830381600087803b15801561076557600080fd5b505af1158015610779573d6000803e3d6000fd5b505050506040513d601f19601f8201168201806040525081019061079d9190611493565b5060405183815233907f884edad9ce6fa2440d8a54cc123490eb96d2768479d49ff9c7366125a94243649060200160405180910390a2505050565b6000336104f98185856107eb8383610992565b6107f59190611559565b610dbc565b610802611239565b61080c6000611293565b565b606060058054610468906115c9565b6000338161082b8286610992565b90508381101561088b5760405162461bcd60e51b815260206004820152602560248201527f45524332303a2064656372656173656420616c6c6f77616e63652062656c6f77604482015264207a65726f60d81b6064820152608401610706565b61062c8286868403610dbc565b6000336104f9818585610f5a565b6108ae611239565b6108bb62093a8042611559565b6001600160a01b039091166000908152600b6020526040902055565b3360009081526007602052604090205460ff166108f357600080fd5b6108fb610503565b81111561090757600080fd5b60085460405163a9059cbb60e01b81526001600160a01b038481166004830152602482018490529091169063a9059cbb90604401602060405180830381600087803b15801561095557600080fd5b505af1158015610969573d6000803e3d6000fd5b505050506040513d601f19601f8201168201806040525081019061098d9190611493565b505050565b6001600160a01b03918216600090815260026020908152604080832093909416825291909152205490565b600a5460009060ff16610a025760405162461bcd60e51b815260206004820152600d60248201526c1c185d5cd95119511953195b99609a1b6044820152606401610706565b6000600954610a0f610503565b610a199190611559565b90506000610a2660035490565b118015610a335750600081115b610a4e57610a49670de0b6b3a764000085611593565b610a6c565b80610a5860035490565b610a629086611593565b610a6c9190611571565b9150600081600654610a7e91906115b2565b905083831015610ae05760405162461bcd60e51b815260206004820152602760248201527f506f6f6c204572726f723a20546865206d696e74206c696d697420697320746f6044820152666f206c6172676560c81b6064820152608401610706565b60008311610b3c5760405162461bcd60e51b815260206004820152602360248201527f506f6f6c204572726f723a2054686520616d6f756e7420697320746f6f20736d604482015262185b1b60ea1b6064820152608401610706565b80851115610b985760405162461bcd60e51b8152602060048201526024808201527f506f6f6c204572726f723a2070726f766964696e6720555344432069732070616044820152631d5cd95960e21b6064820152608401610706565b6008546040516323b872dd60e01b8152336004820152306024820152604481018790526001600160a01b03909116906323b872dd90606401602060405180830381600087803b158015610bea57600080fd5b505af1158015610bfe573d6000803e3d6000fd5b505050506040513d601f19601f82011682018060405250810190610c229190611493565b50610c2d33846112e3565b60405185815233907fa63d9d1536f0a17779061a910d29ff26af4aa035bbd6c128b55bfde21d6a2b409060200160405180910390a2505092915050565b610c72611239565b600a805460ff1916911515919091179055565b610c8d611239565b6001600160a01b038116610cf25760405162461bcd60e51b815260206004820152602660248201527f4f776e61626c653a206e6577206f776e657220697320746865207a65726f206160448201526564647265737360d01b6064820152608401610706565b610cfb81611293565b50565b610d06611239565b6001600160a01b0381166000908152600b6020526040902054819015801590610d4757506001600160a01b0381166000908152600b60205260409020544210155b610d8c5760405162461bcd60e51b8152602060048201526016602482015275119d5b98dd1a5bdb881a5cc81d1a5b595b1bd8dad95960521b6044820152606401610706565b506001600160a01b03166000908152600760209081526040808320805460ff19166001179055600b909152812055565b6001600160a01b038316610e1e5760405162461bcd60e51b8152602060048201526024808201527f45524332303a20617070726f76652066726f6d20746865207a65726f206164646044820152637265737360e01b6064820152608401610706565b6001600160a01b038216610e7f5760405162461bcd60e51b815260206004820152602260248201527f45524332303a20617070726f766520746f20746865207a65726f206164647265604482015261737360f01b6064820152608401610706565b6001600160a01b0383811660008181526002602090815260408083209487168084529482529182902085905590518481527f8c5be1e5ebec7d5bd14f71427d1e84f3dd0314c0f7b2291e5b200ac8c7c3b925910160405180910390a3505050565b6000610eec8484610992565b90506000198114610f545781811015610f475760405162461bcd60e51b815260206004820152601d60248201527f45524332303a20696e73756666696369656e7420616c6c6f77616e63650000006044820152606401610706565b610f548484848403610dbc565b50505050565b6001600160a01b038316610fbe5760405162461bcd60e51b815260206004820152602560248201527f45524332303a207472616e736665722066726f6d20746865207a65726f206164604482015264647265737360d81b6064820152608401610706565b6001600160a01b0382166110205760405162461bcd60e51b815260206004820152602360248201527f45524332303a207472616e7366657220746f20746865207a65726f206164647260448201526265737360e81b6064820152608401610706565b6001600160a01b038316600090815260016020526040902054818110156110985760405162461bcd60e51b815260206004820152602660248201527f45524332303a207472616e7366657220616d6f756e7420657863656564732062604482015265616c616e636560d01b6064820152608401610706565b6001600160a01b0380851660008181526001602052604080822086860390559286168082529083902080548601905591517fddf252ad1be2c89b69c2b068fc378daa952ba7f163c4a11628f55a4df523b3ef906110f89086815260200190565b60405180910390a3610f54565b6001600160a01b0382166111655760405162461bcd60e51b815260206004820152602160248201527f45524332303a206275726e2066726f6d20746865207a65726f206164647265736044820152607360f81b6064820152608401610706565b6001600160a01b038216600090815260016020526040902054818110156111d95760405162461bcd60e51b815260206004820152602260248201527f45524332303a206275726e20616d6f756e7420657863656564732062616c616e604482015261636560f01b6064820152608401610706565b6001600160a01b03831660008181526001602090815260408083208686039055600380548790039055518581529192917fddf252ad1be2c89b69c2b068fc378daa952ba7f163c4a11628f55a4df523b3ef910160405180910390a3505050565b6000546001600160a01b0316331461080c5760405162461bcd60e51b815260206004820181905260248201527f4f776e61626c653a2063616c6c6572206973206e6f7420746865206f776e65726044820152606401610706565b600080546001600160a01b038381166001600160a01b0319831681178455604051919092169283917f8be0079c531659141344cd1fd0a4f28419497f9722a3daafe3b4186f6b6457e09190a35050565b6001600160a01b0382166113395760405162461bcd60e51b815260206004820152601f60248201527f45524332303a206d696e7420746f20746865207a65726f2061646472657373006044820152606401610706565b806003600082825461134b9190611559565b90915550506001600160a01b0382166000818152600160209081526040808320805486019055518481527fddf252ad1be2c89b69c2b068fc378daa952ba7f163c4a11628f55a4df523b3ef910160405180910390a35050565b80356001600160a01b038116811461060e57600080fd5b6000602082840312156113cd57600080fd5b6113d6826113a4565b9392505050565b600080604083850312156113f057600080fd5b6113f9836113a4565b9150611407602084016113a4565b90509250929050565b60008060006060848603121561142557600080fd5b61142e846113a4565b925061143c602085016113a4565b9150604084013590509250925092565b6000806040838503121561145f57600080fd5b611468836113a4565b946020939093013593505050565b60006020828403121561148857600080fd5b81356113d68161161a565b6000602082840312156114a557600080fd5b81516113d68161161a565b6000602082840312156114c257600080fd5b5035919050565b6000602082840312156114db57600080fd5b5051919050565b600080604083850312156114f557600080fd5b50508035926020909101359150565b600060208083528351808285015260005b8181101561153157858101830151858201604001528201611515565b81811115611543576000604083870101525b50601f01601f1916929092016040019392505050565b6000821982111561156c5761156c611604565b500190565b60008261158e57634e487b7160e01b600052601260045260246000fd5b500490565b60008160001904831182151516156115ad576115ad611604565b500290565b6000828210156115c4576115c4611604565b500390565b600181811c908216806115dd57607f821691505b602082108114156115fe57634e487b7160e01b600052602260045260246000fd5b50919050565b634e487b7160e01b600052601160045260246000fd5b8015158114610cfb57600080fdfea26469706673582212201f1171a62cbb524ce555a74797cd34c7b39bc9d0839631c7f1cdeb0d16cadd2164736f6c63430008060033",
  "devdoc": {
    "kind": "dev",
    "methods": {
      "allowance(address,address)": {
        "details": "See {IERC20-allowance}."
      },
      "approve(address,uint256)": {
        "details": "See {IERC20-approve}. NOTE: If `amount` is the maximum `uint256`, the allowance is not updated on `transferFrom`. This is semantically equivalent to an infinite approval. Requirements: - `spender` cannot be the zero address."
      },
      "balanceOf(address)": {
        "details": "See {IERC20-balanceOf}."
      },
      "decimals()": {
        "details": "Returns the number of decimals used to get its user representation. For example, if `decimals` equals `2`, a balance of `505` tokens should be displayed to a user as `5.05` (`505 / 10 ** 2`). Tokens usually opt for a value of 18, imitating the relationship between Ether and Wei. This is the value {ERC20} uses, unless this function is overridden; NOTE: This information is only used for _display_ purposes: it in no way affects any of the arithmetic of the contract, including {IERC20-balanceOf} and {IERC20-transfer}."
      },
      "decreaseAllowance(address,uint256)": {
        "details": "Atomically decreases the allowance granted to `spender` by the caller. This is an alternative to {approve} that can be used as a mitigation for problems described in {IERC20-approve}. Emits an {Approval} event indicating the updated allowance. Requirements: - `spender` cannot be the zero address. - `spender` must have allowance for the caller of at least `subtractedValue`."
      },
      "increaseAllowance(address,uint256)": {
        "details": "Atomically increases the allowance granted to `spender` by the caller. This is an alternative to {approve} that can be used as a mitigation for problems described in {IERC20-approve}. Emits an {Approval} event indicating the updated allowance. Requirements: - `spender` cannot be the zero address."
      },
      "name()": {
        "details": "Returns the name of the token."
      },
      "owner()": {
        "details": "Returns the address of the current owner."
      },
      "renounceOwnership()": {
        "details": "Leaves the contract without owner. It will not be possible to call `onlyOwner` functions anymore. Can only be called by the current owner. NOTE: Renouncing ownership will leave the contract without an owner, thereby removing any functionality that is only available to the owner."
      },
      "symbol()": {
        "details": "Returns the symbol of the token, usually a shorter version of the name."
      },
      "totalSupply()": {
        "details": "See {IERC20-totalSupply}."
      },
      "transfer(address,uint256)": {
        "details": "See {IERC20-transfer}. Requirements: - `to` cannot be the zero address. - the caller must have a balance of at least `amount`."
      },
      "transferFrom(address,address,uint256)": {
        "details": "See {IERC20-transferFrom}. Emits an {Approval} event indicating the updated allowance. This is not required by the EIP. See the note at the beginning of {ERC20}. NOTE: Does not update the allowance if the current allowance is the maximum `uint256`. Requirements: - `from` and `to` cannot be the zero address. - `from` must have a balance of at least `amount`. - the caller must have allowance for ``from``'s tokens of at least `amount`."
      },
      "transferOwnership(address)": {
        "details": "Transfers ownership of the contract to a new account (`newOwner`). Can only be called by the current owner."
      }
    },
    "version": 1
  },
  "userdoc": {
    "kind": "user",
    "methods": {},
    "version": 1
  },
  "storageLayout": {
    "storage": [
      {
        "astId": 7,
        "contract": "contracts/PoolDDL.sol:PoolDDL",
        "label": "_owner",
        "offset": 0,
        "slot": "0",
        "type": "t_address"
      },
      {
        "astId": 128,
        "contract": "contracts/PoolDDL.sol:PoolDDL",
        "label": "_balances",
        "offset": 0,
        "slot": "1",
        "type": "t_mapping(t_address,t_uint256)"
      },
      {
        "astId": 134,
        "contract": "contracts/PoolDDL.sol:PoolDDL",
        "label": "_allowances",
        "offset": 0,
        "slot": "2",
        "type": "t_mapping(t_address,t_mapping(t_address,t_uint256))"
      },
      {
        "astId": 136,
        "contract": "contracts/PoolDDL.sol:PoolDDL",
        "label": "_totalSupply",
        "offset": 0,
        "slot": "3",
        "type": "t_uint256"
      },
      {
        "astId": 138,
        "contract": "contracts/PoolDDL.sol:PoolDDL",
        "label": "_name",
        "offset": 0,
        "slot": "4",
        "type": "t_string_storage"
      },
      {
        "astId": 140,
        "contract": "contracts/PoolDDL.sol:PoolDDL",
        "label": "_symbol",
        "offset": 0,
        "slot": "5",
        "type": "t_string_storage"
      },
      {
        "astId": 844,
        "contract": "contracts/PoolDDL.sol:PoolDDL",
        "label": "maxDepositAmount",
        "offset": 0,
        "slot": "6",
        "type": "t_uint256"
      },
      {
        "astId": 848,
        "contract": "contracts/PoolDDL.sol:PoolDDL",
        "label": "ddlContracts",
        "offset": 0,
        "slot": "7",
        "type": "t_mapping(t_address,t_bool)"
      },
      {
        "astId": 851,
        "contract": "contracts/PoolDDL.sol:PoolDDL",
        "label": "token",
        "offset": 0,
        "slot": "8",
        "type": "t_contract(IERC20)777"
      },
      {
        "astId": 853,
        "contract": "contracts/PoolDDL.sol:PoolDDL",
        "label": "totalLocked",
        "offset": 0,
        "slot": "9",
        "type": "t_uint256"
      },
      {
        "astId": 856,
        "contract": "contracts/PoolDDL.sol:PoolDDL",
        "label": "openDeDeLend",
        "offset": 0,
        "slot": "10",
        "type": "t_bool"
      },
      {
        "astId": 860,
        "contract": "contracts/PoolDDL.sol:PoolDDL",
        "label": "timelock",
        "offset": 0,
        "slot": "11",
        "type": "t_mapping(t_address,t_uint256)"
      }
    ],
    "types": {
      "t_address": {
        "encoding": "inplace",
        "label": "address",
        "numberOfBytes": "20"
      },
      "t_bool": {
        "encoding": "inplace",
        "label": "bool",
        "numberOfBytes": "1"
      },
      "t_contract(IERC20)777": {
        "encoding": "inplace",
        "label": "contract IERC20",
        "numberOfBytes": "20"
      },
      "t_mapping(t_address,t_bool)": {
        "encoding": "mapping",
        "key": "t_address",
        "label": "mapping(address => bool)",
        "numberOfBytes": "32",
        "value": "t_bool"
      },
      "t_mapping(t_address,t_mapping(t_address,t_uint256))": {
        "encoding": "mapping",
        "key": "t_address",
        "label": "mapping(address => mapping(address => uint256))",
        "numberOfBytes": "32",
        "value": "t_mapping(t_address,t_uint256)"
      },
      "t_mapping(t_address,t_uint256)": {
        "encoding": "mapping",
        "key": "t_address",
        "label": "mapping(address => uint256)",
        "numberOfBytes": "32",
        "value": "t_uint256"
      },
      "t_string_storage": {
        "encoding": "bytes",
        "label": "string",
        "numberOfBytes": "32"
      },
      "t_uint256": {
        "encoding": "inplace",
        "label": "uint256",
        "numberOfBytes": "32"
      }
    }
  }
}