{
  "_format": "hh-sol-artifact-1",
  "contractName": "Doppelganger",
  "sourceName": "contracts/Doppelganger.sol",
  "abi": [
    {
      "inputs": [
        {
          "internalType": "contract IPositionRouter",
          "name": "_positionRouter",
          "type": "address"
        },
        {
          "internalType": "address",
          "name": "_router",
          "type": "address"
        },
        {
          "internalType": "uint256[8]",
          "name": "keyArray",
          "type": "uint256[8]"
        },
        {
          "internalType": "address[8]",
          "name": "_indexTokenArray",
          "type": "address[8]"
        },
        {
          "internalType": "address[4]",
          "name": "_stablecoinsArray",
          "type": "address[4]"
        },
        {
          "internalType": "address",
          "name": "_accountManager",
          "type": "address"
        },
        {
          "internalType": "address",
          "name": "_accountManagerToken",
          "type": "address"
        },
        {
          "internalType": "address",
          "name": "_ddl_gmx",
          "type": "address"
        }
      ],
      "stateMutability": "nonpayable",
      "type": "constructor"
    },
    {
      "inputs": [],
      "name": "GMXPT",
      "outputs": [
        {
          "internalType": "contract ERC721",
          "name": "",
          "type": "address"
        }
      ],
      "stateMutability": "view",
      "type": "function"
    },
    {
      "inputs": [],
      "name": "accountManager",
      "outputs": [
        {
          "internalType": "address",
          "name": "",
          "type": "address"
        }
      ],
      "stateMutability": "view",
      "type": "function"
    },
    {
      "inputs": [
        {
          "internalType": "uint256",
          "name": "value",
          "type": "uint256"
        }
      ],
      "name": "approveAll",
      "outputs": [],
      "stateMutability": "nonpayable",
      "type": "function"
    },
    {
      "inputs": [
        {
          "internalType": "address",
          "name": "user",
          "type": "address"
        },
        {
          "internalType": "address[]",
          "name": "_path",
          "type": "address[]"
        },
        {
          "internalType": "address",
          "name": "_indexToken",
          "type": "address"
        },
        {
          "internalType": "uint256",
          "name": "_collateralDelta",
          "type": "uint256"
        },
        {
          "internalType": "uint256",
          "name": "_sizeDelta",
          "type": "uint256"
        },
        {
          "internalType": "bool",
          "name": "_isLong",
          "type": "bool"
        },
        {
          "internalType": "uint256",
          "name": "_acceptablePrice",
          "type": "uint256"
        },
        {
          "internalType": "uint256",
          "name": "_minOut",
          "type": "uint256"
        },
        {
          "internalType": "uint256",
          "name": "_executionFee",
          "type": "uint256"
        },
        {
          "internalType": "bool",
          "name": "_withdrawETH",
          "type": "bool"
        },
        {
          "internalType": "address",
          "name": "_callbackTarget",
          "type": "address"
        }
      ],
      "name": "createDecreasePosition",
      "outputs": [],
      "stateMutability": "payable",
      "type": "function"
    },
    {
      "inputs": [
        {
          "internalType": "address",
          "name": "user",
          "type": "address"
        },
        {
          "internalType": "address[]",
          "name": "_path",
          "type": "address[]"
        },
        {
          "internalType": "address",
          "name": "_indexToken",
          "type": "address"
        },
        {
          "internalType": "uint256",
          "name": "_amountIn",
          "type": "uint256"
        },
        {
          "internalType": "uint256",
          "name": "_minOut",
          "type": "uint256"
        },
        {
          "internalType": "uint256",
          "name": "_sizeDelta",
          "type": "uint256"
        },
        {
          "internalType": "bool",
          "name": "_isLong",
          "type": "bool"
        },
        {
          "internalType": "uint256",
          "name": "_acceptablePrice",
          "type": "uint256"
        },
        {
          "internalType": "uint256",
          "name": "_executionFee",
          "type": "uint256"
        },
        {
          "internalType": "bytes32",
          "name": "_referralCode",
          "type": "bytes32"
        },
        {
          "internalType": "address",
          "name": "_callbackTarget",
          "type": "address"
        }
      ],
      "name": "createIncreasePosition",
      "outputs": [],
      "stateMutability": "payable",
      "type": "function"
    },
    {
      "inputs": [
        {
          "internalType": "address",
          "name": "user",
          "type": "address"
        },
        {
          "internalType": "address[]",
          "name": "_path",
          "type": "address[]"
        },
        {
          "internalType": "address",
          "name": "_indexToken",
          "type": "address"
        },
        {
          "internalType": "uint256",
          "name": "_amountIn",
          "type": "uint256"
        },
        {
          "internalType": "uint256",
          "name": "_minOut",
          "type": "uint256"
        },
        {
          "internalType": "uint256",
          "name": "_sizeDelta",
          "type": "uint256"
        },
        {
          "internalType": "bool",
          "name": "_isLong",
          "type": "bool"
        },
        {
          "internalType": "uint256",
          "name": "_acceptablePrice",
          "type": "uint256"
        },
        {
          "internalType": "uint256",
          "name": "_executionFee",
          "type": "uint256"
        },
        {
          "internalType": "bytes32",
          "name": "_referralCode",
          "type": "bytes32"
        },
        {
          "internalType": "address",
          "name": "_callbackTarget",
          "type": "address"
        }
      ],
      "name": "createIncreasePositionETH",
      "outputs": [],
      "stateMutability": "payable",
      "type": "function"
    },
    {
      "inputs": [],
      "name": "ddl_gmx",
      "outputs": [
        {
          "internalType": "address",
          "name": "",
          "type": "address"
        }
      ],
      "stateMutability": "view",
      "type": "function"
    },
    {
      "inputs": [
        {
          "internalType": "uint256",
          "name": "",
          "type": "uint256"
        }
      ],
      "name": "indexTokenArray",
      "outputs": [
        {
          "internalType": "address",
          "name": "",
          "type": "address"
        }
      ],
      "stateMutability": "view",
      "type": "function"
    },
    {
      "inputs": [],
      "name": "isApproved",
      "outputs": [
        {
          "internalType": "bool",
          "name": "",
          "type": "bool"
        }
      ],
      "stateMutability": "view",
      "type": "function"
    },
    {
      "inputs": [
        {
          "internalType": "address",
          "name": "",
          "type": "address"
        },
        {
          "internalType": "bool",
          "name": "",
          "type": "bool"
        }
      ],
      "name": "keyByIndexToken",
      "outputs": [
        {
          "internalType": "uint256",
          "name": "",
          "type": "uint256"
        }
      ],
      "stateMutability": "view",
      "type": "function"
    },
    {
      "inputs": [
        {
          "internalType": "uint256",
          "name": "",
          "type": "uint256"
        }
      ],
      "name": "keys",
      "outputs": [
        {
          "internalType": "bool",
          "name": "",
          "type": "bool"
        }
      ],
      "stateMutability": "view",
      "type": "function"
    },
    {
      "inputs": [],
      "name": "positionRouter",
      "outputs": [
        {
          "internalType": "contract IPositionRouter",
          "name": "",
          "type": "address"
        }
      ],
      "stateMutability": "view",
      "type": "function"
    },
    {
      "inputs": [],
      "name": "router",
      "outputs": [
        {
          "internalType": "address",
          "name": "",
          "type": "address"
        }
      ],
      "stateMutability": "view",
      "type": "function"
    },
    {
      "inputs": [
        {
          "internalType": "uint256",
          "name": "",
          "type": "uint256"
        }
      ],
      "name": "stablecoinsArray",
      "outputs": [
        {
          "internalType": "address",
          "name": "",
          "type": "address"
        }
      ],
      "stateMutability": "view",
      "type": "function"
    },
    {
      "stateMutability": "payable",
      "type": "receive"
    }
  ],
  "bytecode": "0x60a0604052600d805460ff60a01b191690553480156200001e57600080fd5b50604051620015403803806200154083398101604081905262000041916200035a565b600080546001600160a01b0319166001600160a01b038a16178155606088901b6001600160601b0319166080525b6008811015620002015760048110156200012257858160088110620000985762000098620004bb565b602002015160048260048110620000b357620000b3620004bb565b0180546001600160a01b0319166001600160a01b0392909216919091179055848160048110620000e757620000e7620004bb565b602002015160088260048110620001025762000102620004bb565b0180546001600160a01b0319166001600160a01b03929092169190911790555b868160088110620001375762000137620004bb565b602002015160016000888460088110620001555762000155620004bb565b60200201516001600160a01b03166001600160a01b031681526020019081526020016000206000600484106200018d57600062000190565b60015b15151515815260200190815260200160002081905550600160026000898460088110620001c157620001c1620004bb565b6020020151815260200190815260200160002060006101000a81548160ff0219169083151502179055508080620001f89062000491565b9150506200006f565b50600380546001600160a01b03199081166001600160a01b0394851617909155600c8054821694841694909417909355600d8054909316911617905550620004ea9350505050565b80516200025681620004d1565b919050565b600082601f8301126200026d57600080fd5b604051608081016001600160401b03811182821017156200029e57634e487b7160e01b600052604160045260246000fd5b604052808360808101861015620002b457600080fd5b60005b6004811015620002e4578151620002ce81620004d1565b83526020928301929190910190600101620002b7565b509195945050505050565b600082601f8301126200030157600080fd5b6200030b62000459565b808385610100860111156200031f57600080fd5b60005b60088110156200034f5781516200033981620004d1565b8452602093840193919091019060010162000322565b509095945050505050565b600080600080600080600080610320898b0312156200037857600080fd5b88516200038581620004d1565b809850506020808a01516200039a81620004d1565b9750605f8a018b13620003ac57600080fd5b620003b662000459565b8060408c016101408d018e811115620003ce57600080fd5b60005b6008811015620003f057825185529385019391850191600101620003d1565b50829a50620004008f82620002ef565b99505050505050620004178a6102408b016200025b565b9350620004286102c08a0162000249565b9250620004396102e08a0162000249565b91506200044a6103008a0162000249565b90509295985092959890939650565b60405161010081016001600160401b03811182821017156200048b57634e487b7160e01b600052604160045260246000fd5b60405290565b6000600019821415620004b457634e487b7160e01b600052601160045260246000fd5b5060010190565b634e487b7160e01b600052603260045260246000fd5b6001600160a01b0381168114620004e757600080fd5b50565b60805160601c6110226200051e600039600081816102dd015281816105c2015281816106f3015261084701526110226000f3fe6080604052600436106100e05760003560e01c806361ef161f1161007f578063b7511c5b11610059578063b7511c5b14610278578063d6ef601314610298578063da91dfd5146102b8578063f887ea40146102cb57600080fd5b806361ef161f146102255780636f7e87991461024557806391c2c4691461025857600080fd5b80630cd790f7116100bb5780630cd790f71461018957806313a51b2e146101a957806328f371aa146101ef5780634fbb66c31461021057600080fd5b806230e1b5146100ec57806306b278cb146101295780630cb6aaf11461014957600080fd5b366100e757005b600080fd5b3480156100f857600080fd5b5061010c610107366004610dd4565b6102ff565b6040516001600160a01b0390911681526020015b60405180910390f35b34801561013557600080fd5b5060035461010c906001600160a01b031681565b34801561015557600080fd5b50610179610164366004610dd4565b60026020526000908152604090205460ff1681565b6040519015158152602001610120565b34801561019557600080fd5b50600d5461010c906001600160a01b031681565b3480156101b557600080fd5b506101e16101c4366004610d7e565b600160209081526000928352604080842090915290825290205481565b604051908152602001610120565b3480156101fb57600080fd5b50600d5461017990600160a01b900460ff1681565b61022361021e366004610ccf565b61031f565b005b34801561023157600080fd5b5060005461010c906001600160a01b031681565b610223610253366004610c07565b6103ad565b34801561026457600080fd5b50600c5461010c906001600160a01b031681565b34801561028457600080fd5b50610223610293366004610dd4565b6105a0565b3480156102a457600080fd5b5061010c6102b3366004610dd4565b6108fd565b6102236102c6366004610ccf565b61090d565b3480156102d757600080fd5b5061010c7f000000000000000000000000000000000000000000000000000000000000000081565b6008816004811061030f57600080fd5b01546001600160a01b0316905081565b61032a8b8a8761095a565b60005460405163f2ae372f60e01b81526001600160a01b039091169063f2ae372f90349061036e908e908e908e908e908e908e908e908e908e908e90600401610f06565b6000604051808303818588803b15801561038757600080fd5b505af115801561039b573d6000803e3d6000fd5b50505050505050505050505050505050565b6003546001600160a01b038a811660009081526001602090815260408083208b151584529091528082205490516331a9108f60e11b8152600481019190915290929190911690636352211e9060240160206040518083038186803b15801561041457600080fd5b505afa158015610428573d6000803e3d6000fd5b505050506040513d601f19601f8201168201806040525081019061044c9190610be3565b90508b6001600160a01b0316816001600160a01b0316146104ab5760405162461bcd60e51b8152602060048201526014602482015273796f7520646f6e277420686176652061206b657960601b60448201526064015b60405180910390fd5b600d546001600160a01b0316331461050c57600c546001600160a01b0316331461050c5760405162461bcd60e51b815260206004820152601260248201527134b73b30b634b21036b9b39739b2b73232b960711b60448201526064016104a2565b60008054906101000a90046001600160a01b03166001600160a01b0316637be7d141348d8d8d8d8d888e8e8e8e8e6040518d63ffffffff1660e01b81526004016105609b9a99989796959493929190610e31565b6000604051808303818588803b15801561057957600080fd5b505af115801561058d573d6000803e3d6000fd5b5050505050505050505050505050505050565b6000546040516338c74dd960e01b81526001600160a01b0391821660048201527f0000000000000000000000000000000000000000000000000000000000000000909116906338c74dd990602401600060405180830381600087803b15801561060857600080fd5b505af115801561061c573d6000803e3d6000fd5b5050505060005b60048110156108e6576004816004811061063f5761063f610f9a565b015460005460405163095ea7b360e01b81526001600160a01b0391821660048201526024810185905291169063095ea7b390604401602060405180830381600087803b15801561068e57600080fd5b505af11580156106a2573d6000803e3d6000fd5b505050506040513d601f19601f820116820180604052508101906106c69190610db7565b50600481600481106106da576106da610f9a565b015460405163095ea7b360e01b81526001600160a01b037f000000000000000000000000000000000000000000000000000000000000000081166004830152602482018590529091169063095ea7b390604401602060405180830381600087803b15801561074757600080fd5b505af115801561075b573d6000803e3d6000fd5b505050506040513d601f19601f8201168201806040525081019061077f9190610db7565b506008816004811061079357610793610f9a565b015460005460405163095ea7b360e01b81526001600160a01b0391821660048201526024810185905291169063095ea7b390604401602060405180830381600087803b1580156107e257600080fd5b505af11580156107f6573d6000803e3d6000fd5b505050506040513d601f19601f8201168201806040525081019061081a9190610db7565b506008816004811061082e5761082e610f9a565b015460405163095ea7b360e01b81526001600160a01b037f000000000000000000000000000000000000000000000000000000000000000081166004830152602482018590529091169063095ea7b390604401602060405180830381600087803b15801561089b57600080fd5b505af11580156108af573d6000803e3d6000fd5b505050506040513d601f19601f820116820180604052508101906108d39190610db7565b50806108de81610f71565b915050610623565b5050600d805460ff60a01b1916600160a01b179055565b6004816004811061030f57600080fd5b6109188b8a8761095a565b600054604051632dc4746360e11b81526001600160a01b0390911690635b88e8c690349061036e908e908e908d908d908d908d908d908d908d90600401610ea4565b6003546001600160a01b0383811660009081526001602090815260408083208615158452909152908190205490516331a9108f60e11b81528287169390921691636352211e916109b09160040190815260200190565b60206040518083038186803b1580156109c857600080fd5b505afa1580156109dc573d6000803e3d6000fd5b505050506040513d601f19601f82011682018060405250810190610a009190610be3565b6001600160a01b031614610a4d5760405162461bcd60e51b8152602060048201526014602482015273796f7520646f6e277420686176652061206b657960601b60448201526064016104a2565b6001600160a01b038216600090815260016020908152604080832084151584528252808320548352600290915290205460ff16610aba5760405162461bcd60e51b815260206004820152600b60248201526a696e76616c6964206b657960a81b60448201526064016104a2565b600d546001600160a01b03163314610b1b57600c546001600160a01b03163314610b1b5760405162461bcd60e51b815260206004820152601260248201527134b73b30b634b21036b9b39739b2b73232b960711b60448201526064016104a2565b505050565b8035610b2b81610fc6565b919050565b600082601f830112610b4157600080fd5b8135602067ffffffffffffffff80831115610b5e57610b5e610fb0565b8260051b604051601f19603f83011681018181108482111715610b8357610b83610fb0565b60405284815283810192508684018288018501891015610ba257600080fd5b600092505b85831015610bcc57610bb881610b20565b845292840192600192909201918401610ba7565b50979650505050505050565b8035610b2b81610fde565b600060208284031215610bf557600080fd5b8151610c0081610fc6565b9392505050565b60008060008060008060008060008060006101608c8e031215610c2957600080fd5b8b35610c3481610fc6565b9a5060208c013567ffffffffffffffff811115610c5057600080fd5b610c5c8e828f01610b30565b9a505060408c0135610c6d81610fc6565b985060608c0135975060808c01359650610c8960a08d01610bd8565b955060c08c0135945060e08c013593506101008c01359250610cae6101208d01610bd8565b9150610cbd6101408d01610b20565b90509295989b509295989b9093969950565b60008060008060008060008060008060006101608c8e031215610cf157600080fd5b8b35610cfc81610fc6565b9a5060208c013567ffffffffffffffff811115610d1857600080fd5b610d248e828f01610b30565b9a505060408c0135610d3581610fc6565b985060608c0135975060808c0135965060a08c01359550610d5860c08d01610bd8565b945060e08c013593506101008c013592506101208c01359150610cbd6101408d01610b20565b60008060408385031215610d9157600080fd5b8235610d9c81610fc6565b91506020830135610dac81610fde565b809150509250929050565b600060208284031215610dc957600080fd5b8151610c0081610fde565b600060208284031215610de657600080fd5b5035919050565b600081518084526020808501945080840160005b83811015610e265781516001600160a01b031687529582019590820190600101610e01565b509495945050505050565b6000610160808352610e458184018f610ded565b6001600160a01b039d8e166020850152604084019c909c5250506060810198909852951515608088015293881660a087015260c086019290925260e0850152610100840152151561012083015290921661014090920191909152919050565b6000610120808352610eb88184018d610ded565b6001600160a01b039b8c166020850152604084019a909a5250506060810196909652931515608086015260a085019290925260c084015260e083015290921661010090920191909152919050565b6000610140808352610f1a8184018e610ded565b6001600160a01b039c8d166020850152604084019b909b5250506060810197909752608087019590955292151560a086015260c085019190915260e084015261010083015290921661012090920191909152919050565b6000600019821415610f9357634e487b7160e01b600052601160045260246000fd5b5060010190565b634e487b7160e01b600052603260045260246000fd5b634e487b7160e01b600052604160045260246000fd5b6001600160a01b0381168114610fdb57600080fd5b50565b8015158114610fdb57600080fdfea264697066735822122032e8fe70cbfef3c0ccdafcd2cbef472ae472c88433a74d2e158d2af6dee5c4f064736f6c63430008060033",
  "linkReferences": {},
  "deployedLinkReferences": {}
}